:020000040000fa
:080000000002040000000000f2
:020000040000fa
:10000800f6020000f6020000f6020000f602000008
:10001800f6020000f6020000f6020000f6020000f8
:10002800f6410000f6020000f6020000b4490000a4
:10003800f6020000f6020000f6020000f6020000d8
:10004800f6020000f6020000f6020000f6020000c8
:10005800f6020000f6020000f6020000f6020000b8
:10006800f6020000f6020000f6020000f6020000a8
:020000040000fa
:10040000cf3e26000eff27000e01880000000000ee
:10041000000020000000e000020032000001200087
:10042000200288000c00070060c2240001002000a8
:100430000f000700000020000000e0000200320072
:100440000000020000000000ec3f0200000000007d
:100450000040da000000fe00c00920000000e000bb
:1004600002003200002020009001880000000600f9
:10047000a1028800800078000000eb001a0037001d
:10048000e280400054a0b4009101ba00e280400034
:1004900054a0b4009102ba00e280400054a0b4001d
:1004a0000002eb00472bde00f507b200a601880032
:1004b000602ce10008003a000049eb000201e8006e
:1004c000020039003420ec0002f0a0008301e900b2
:1004d000f9ff3e00040037006128e100010032000e
:1004e0000082eb00040007001101ba000200e000e6
:1004f000e3ff3a000000060004d0a300e20f490029
:100500001c003900810278003549ba000201e80078
:10051000020039003420ec0002f0a0008301e90061
:100520000f0032002549ba000201e800020039003c
:100530003420ec0002f0a0008301e9000800320042
:100540000400e0000600320015c9ba000201e8000c
:10055000020039003420ec0002f0a0008301e90021
:100560008180e80054a0b4000300e000e2ff3a00fc
:10057000000006009102ba00055978008301e900e5
:10058000f7ff3200c82ade00055978008301e90030
:10059000f3ff32000400e000f1ff320011d9ba008d
:1005a000eeff3700b840040000000000dc4004000b
:1005b00000000000ec44040000000000c23a040007
:1005c00000000000804b040000000000a43d040077
:1005d00000000000c83f040000000000961c04005a
:1005e00000000000a2300400000000000040da001b
:1005f0000000fe000a00fa00e20f500022003e0058
:1006000014008300e10f520006003200872320000f
:10061000462320002423200005232000e08f5300e0
:1006200004003a00872220004622200024222000d5
:1006300005222000000028001500600003003a0099
:10064000800b780007002800958a73000540200081
:100650009482620001003a0014a0a0008202780097
:1006600006003700940378000710b200fdff320047
:10067000b103fb00070b78008502e900e08f520010
:10068000f8ff3a00080037003400200010079800f7
:1006900032079800040f7800210798000e007800b8
:1006a000ac0507003e019000020078000080fa00cf
:1006b0000000060003f0a200889fbe008a9fbe00d3
:1006c0008c1f7800c6000700cd0033006450e100a5
:1006d0004f0032006420e1005200320003826c00bf
:1006e00007003b000905d0000306d000820f54002c
:1006f0000c065d000200390002003200890178001a
:10070000030678008582550004003d000003fd00cb
:100710008103fd008502ea008b854200840f720090
:1007200002003b0060001000e08018006011b8007b
:100730000005eb007a28e1000a0039000600780085
:10074000c75ddd00f707b200878075002d00370018
:10075000828171000a017800610560008180d1000a
:100760000080d3008502e900f9ff3b000604400049
:100770008784480002003b0060041400e0841c00f1
:100780000988a300070032008a817100828171000c
:10079000610164008904d1000884d3008b05e8005e
:1007a000170037000978a30013003a000b00e0009f
:1007b000130034008b05e9000804440089844c00d0
:1007c0000a4474000978a3000d003a000b00e00011
:1007d000070034008b05e9000804440089844c00bc
:1007e00001003a000b0020000978a300f7ff320057
:1007f0000001eb0002003700828171000a017800dd
:10080000510007000cf0a70001f0a00085003700a0
:100810006420e10002003a00838f6c008500330001
:100820000801be000200be007e003700889fbe00a7
:100830008a9fbe008c1f780069000700700033009b
:1008400003866c006450e1002e0032006420e10059
:10085000330032006150e1002f0032006120e100de
:100860003100320085855500eb07b00009002000fb
:1008700008042000050037000804440089844c0067
:100880000a0031000603430087834b000001530038
:1008900081815b00f8ff33000203be000800a00066
:1008a0000804440089844c00f6ff3900c639dd0095
:1008b0008301730001003200130020008904d1007d
:1008c0000884d3000998a300050032000800a7009f
:1008d0000300a0008904d1000884d3008b05e80040
:1008e0008904d1000884d3000001eb000281d2000a
:1008f0001500070001f0a1000cf0a70001f0a00016
:10090000480037006420e1004a0032000801be00c0
:100910000200be00f7ff37006120e1004500320011
:100920006000b800f3ff37000000200001f8270046
:10093000f0ff37004f89de00820178007400370035
:100940006011b800820037008100200061805500ee
:100950000b003d000b00200061fe2f000100e100b4
:100960001d00340082817100610164008904d1009e
:100970000884d3000000e800faff3a00710020006c
:100980006100640003007000020060000900320092
:1009900061044400e0844c000988a5000500320091
:1009a0008b05e8006808e10002003a008904d100e4
:1009b0000884d300f20f20000258e10005003d003a
:1009c000c75ddd00f907b200898075000800780076
:1009d000000006000bf827008b00780000000500df
:1009e0000004be00890007000003be000405be002d
:1009f0000200be0085000700844f7500000006005d
:100a00000200be006450e100050036006420e100f1
:100a1000020036000968a30001003a000800be0089
:100a20000160a0004f0678004f05be004f04be00d5
:100a300000000600f0ff2f00f1ff2700f9ff37004c
:100a4000889fbe008a9fbe008c1f7800e4ff0700cd
:100a5000ebff330003866c006450e1002400320099
:100a60006420e100270032006150e10022003200e2
:100a70006120e100210032008b854200eb07b100cc
:100a80000134b800003ab8000804420089844a00e2
:100a9000013ab8000030b8008880400009014a00df
:100aa000040033000000400081804800020149003a
:100ab0008b05e900c909dd008301700001003200e7
:100ac00013002000c814de004814dd004709de00d2
:100ad0001200b200c808de00088470009aff070008
:100ae00001f0a1000cf0a70001f0a000cdff37003d
:100af0006120e100cfff32000801be000200be000d
:100b0000f7ff37006150e100fcff3a00c9ff3700f2
:100b1000881f7800030478000300e00007003d0010
:100b200060001000e080180060011900e0811900e9
:100b300002003b0001f02d00030037000400070015
:100b400008f0a70001f0a0004f04780000000600a4
:100b5000889fbe008a9fbe00008270000402710060
:100b600004827100260032000004be000200be00b4
:100b70006011b8006b092000950220000182cf00af
:100b80000a0039000541b1000082cf00070039009a
:100b90000541b1000982cf00040039000541b100d0
:100ba0000882cf00010039000541b1000542520022
:100bb000120032000a003b00828171006101640072
:100bc0008100d1000080d3008984d3000884d30041
:100bd0008b05e8000442e800f7ff3a000700370001
:100be0000804440089844c000000480081804800cb
:100bf0008b05e9000442e900f9ff3a0052ff0700c3
:100c00004f05be004f04be0000000600c70ade000c
:100c1000f107b200f50fb20008003200e1cf420048
:100c2000020032000170a00024000500810f700056
:100c3000010032000408050044000500810f700027
:100c400002003a00140005008502e900000040009f
:100c500081c04800fcff3b000170a000240005009b
:100c60000000fa000002780002003700315a7800d4
:100c70000201e900e00f5100fcff3a000080fa0099
:100c8000000006000000fa000002780002003700b1
:100c9000015a78000201e900e00f5100fcff3a0020
:100ca0000080fa00000006000000fa000002780050
:100cb0008042eb00b4cf1200fdff3a000080ea0052
:100cc0000080fa0000004200000006000c00fa005c
:100cd000889fbe00f4ff27000004780054079800a6
:100ce0008004eb00080f7800190798002807980087
:100cf000240c20006801570034079800ceb89700f4
:100d00000e007800060007001e027800094a7800ed
:100d10001e0014004f04be000080fa000000060010
:100d20003a00fa00889fbe00011798008a9fbe0013
:100d3000421798008c9fbe00800678000000eb00f0
:100d400060179800720337008e10900054c2b300f1
:100d50008100e80001179800844f500006003a0017
:100d6000010278000006eb0001c3b30000c2b3002b
:100d7000b7c2b300100037003d0290000404b20077
:100d8000040032001d027800004a7800840ee8005a
:100d9000050037000000fb008d00780067030700a6
:100da000e10f40005a0332006e1190000201e8008a
:100db000621798005603370084027800d3c2b3004c
:100dc00034437800834f53000900320005003c0093
:100dd000804f530008003200874f53000c003a0048
:100de00007003700814f530009003a000600370022
:100df0000c30a000f0ff37000c00a000eeff370021
:100e00000c10a000ecff37000c20a000eaff370018
:100e100062026600010032000c00a1006802660058
:100e2000010032000c20a1000602fb000403b10007
:100e3000e90f52000c003e00050378000002eb00b1
:100e4000b602fb00ea22b9000503b1009603fb00dd
:100e5000048242000703b10086027800e98f530044
:100e6000f7ff3600080037000002eb00a7c2b3000e
:100e7000874f530004003a004e1390008502e800ab
:100e800046027800461798008003eb00e6c2b300e4
:100e900057179800954f13000c003a000ce0a00083
:100ea00064435300d54f130003003200050378005c
:100eb00007007800090037004e1490008502e80012
:100ec000c80478004817980059179800050378005f
:100ed00009003700ea00b90000804300860278006c
:100ee000b603fb000703b100e98f5300f9ff36009a
:100ef00050179800f5ff3700b6427800cbc6b30014
:100f0000061798008bcf5200250032000f003c00de
:100f100036c6b30086cf5200a300320004003c0066
:100f2000e0cf5200ff0232006b4353000f00370046
:100f300046c6b30086cf5200170032006543430017
:100f400086cf5200b6003a001300370036c7b30010
:100f500086cf52002000320007003c00644353005b
:100f600086cf5200150032000643e80086cf5200bb
:100f7000ab003a001400370056c7b30086cf5200ca
:100f8000ac0032006343430086cf5200a4003a0015
:100f9000054f78000e003700054f7800a700370096
:100fa000f003660005012000010032000500280062
:100fb0008c82720005067800cfff3700054f78005d
:100fc0000c60a0009d003700054f78000c50a00079
:100fd0000c70a000990037004e109000054f78006b
:100fe000c00278004017980075179800e08f5200f3
:100ff00002003a00a2e42500721798007e139000c8
:101000008002eb00010037008502e8008503430001
:101010008041eb0097cf1100fbff3a00051f9800bd
:10102000de129000e08f5200050032000e1b90008f
:10103000868f52000200310085037800071f980058
:101040008e1a90000004eb00850f5200010036005c
:10105000050452006806660009c2b30011003200a0
:101060002d0037003d0290000404b200040032005d
:101070001d027800094a7800840ee8000500370058
:101080008d00780000022000ac020700e10f400054
:10109000030032006e1590000a05e8006a179800f8
:1010a0000804e900e00f5400eeff3a000084eb0072
:1010b00019003700bd0290000504b200090032009b
:1010c000880278009d03780035437800864b7800cd
:1010d00005047800870ee800e04f53000a003a004c
:1010e00012003700880278008d0078003500fb0080
:1010f000441f980005047800900207004e1a9000e3
:10110000e10f4000090032006e1090000000e8007e
:101110006017980005003700080278007e149000e0
:101120008e1c90001e1d9000ae1d9000890278005c
:101130008504e900e08f5200deff3a00781798003e
:10114000091f98001a1f98002b1f980004047800ac
:10115000e00f56006e02320009c2b3006e16900016
:101160000e0037003d0290000404b200040032007b
:101170001d027800094a7800840ee8000500370057
:101180008d007800000220006c020700e10f400093
:10119000010032000c06e8000804e900e00f5400ea
:1011a000f0ff3a0059023700ce109000700366003d
:1011b0004104780041179800cfc4de00090578008b
:1011c0008a0578000800be000a01be004800de0063
:1011d000c80add0000807200004f7800e00f530065
:1011e00009003200e04f500007003200e14f40009c
:1011f000050032002600200010479800284798007c
:10120000061f98000300370017002000071f9800f2
:10121000184798000e04e8007817980080ff370000
:101220001a002000054f78007e1798000a1f9800ca
:101230007bff3700054f78000c0cb3008c02780060
:10124000050cb2003b003a00e00f560005003d00df
:10125000ce1290004501be004500be004517980023
:101260000f003700f0026600120032004e149000aa
:101270004803be0046079800570798004817980093
:1012800098029000cfaade006507980075079800c5
:101290004e009000de0090006e019000fe01900074
:1012a00070179800011f9800121f9800231f9800c4
:1012b0000b003700ce109000c102780005047800c2
:1012c000cfc4de00090578008a0578004117980030
:1012d00078179800091f98001a1f98002b1f980074
:1012e0007e1090008e1890001e199000ae1990008c
:1012f000e00f5000e08f5800e00f5900e08f5900d8
:1013000032003d006000b8006011b8007e1490000b
:101310008e1c90001e1d9000ae1d90003c00b3007e
:1013200008045000898458000a0559008b8559002b
:1013300022003700e00f560005003d00ce1290005d
:101340004501be004500be00451798000f0037005c
:10135000f0026600120032004e1490008004eb0090
:101360004803be000005eb00460f9800570f980099
:10137000690f98007a0f98004e089000de089000e0
:101380006e099000fe0990004817980070179800a9
:10139000011f9800121f9800231f98000b003700b0
:1013a000ce109000c1027800411798000504780023
:1013b000090020000a0020000b0020007817980088
:1013c000091f98001a1f98002b1f9800de14900028
:1013d000e08f54000d003a001a0020007e109000ab
:1013e0008e1890001e199000ae1990005a179800a0
:1013f000e00f5000e08f5800e00f5900e08f5900d7
:10140000020032008000eb00511798000c017800b8
:1014100005042000020cb20032179800850f51001d
:101420003400320003003c00e00f5100080032009d
:101430004800370005082000be119000858f51003c
:1014400014003200050c2000858f510041003a0045
:10145000a6e5250015c0b3003600be003601be006b
:101460007e1490008e1c90001e1d9000ae1d9000fa
:101470000040e10001c8e10002d0e10003d8e10032
:10148000330039008542e800f4cf5200f2ff3a0001
:101490002f00370015c0b30000012000010020001c
:1014a0006011b8007e1490008e1c90001e1d9000ec
:1014b000ae1d90000040e10001c8e10002d0e10053
:1014c00003d8e10022003900490020000000d000cc
:1014d0008180d2000281d2008381d2008904e90098
:1014e000faff3a008542e800f0cf5200edff3a00e3
:1014f0001700370015c0b300800020000100200055
:101500006011b8007e1490008e1c90001e1d90008b
:10151000ae1d90000040e10001c8e10002d0e100f2
:1015200003d8e1000a003900390020000000d00093
:101530008180d2000281d2008381d2008904e90037
:10154000faff3a008542e800f5cf5200edff3a007d
:10155000054f78009e02fb005e1590008a8f5200b6
:1015600002003d000a4f780004003700de159000ad
:10157000858f550001003d0055179800e00f52007f
:1015800003003200e3026600010032000402e900b9
:101590000500240085026600060032005e109000ff
:1015a000800f520002003400000252000100370098
:1015b0000002eb008000eb009e02fb002117980068
:1015c000850f520002003400850252002517980052
:1015d0006402660045003200e202660061026600b5
:1015e000e08f520017003200bd0290000504b200e7
:1015f000080032009d027800b6c2b300e00f52002e
:101600000100320006c3e800864a7800850ee80033
:1016100008003700b0022000e00f52000100320045
:101620000080e8008d00780044010700e10f4000d1
:10163000160032006e1190000201e8006217980057
:1016400012003700e00f5200100032003d029000ff
:101650000404b200050032001d02780005c2b30088
:10166000054a7800840ee800050037008d007800f8
:101670000002200031010700e10f400003003200aa
:10168000ee1190008301e800631798002e1290007d
:10169000e00f52005b00320008c3b30084047800fe
:1016a0003d0290000404b200040032001d027800e4
:1016b000084a7800840ee800050037008d007800a5
:1016c000000320001d010700e10f4000030032006d
:1016d000ee1290008502e800651798008904e90081
:1016e000efff3a0029179800460037002e139000ac
:1016f000e00f5300160032006802660014003a0042
:1017000008c2b300860478003d0290000404b200d1
:10171000040032001d027800084a7800840ee800b8
:10172000050037008d00780000022000030107004b
:10173000e10f400003003200ee1390008703e80041
:10174000671798008904e900efff3a00291798000d
:10175000e202660061026600e08f5200170032006c
:10176000bd0290000504b200080032009d0278001e
:10177000b6c2b300e00f52000100320006c3e80019
:10178000864a7800850ee80008003700b002200085
:10179000e00f5200010032000080e8008d00780068
:1017a000e6000700e10f4000160032006e149000c2
:1017b0000804e8006817980012003700e00f520094
:1017c000100032003d0290000404b2000500320017
:1017d0001d02780005c2b300054a7800840ee800b7
:1017e000050037008d00780000022000d3000700bc
:1017f000e10f400003003200ee1490008904e8007d
:10180000691798005e15900024e525008a02e9001a
:10181000f0056600c32add000c0078000482420057
:101820000002b200141798003b07980020079800a8
:101830009c003700de1090003e1190008100e9000e
:101840000304200051179800830f51006f003200ed
:1018500003003c00e00f5100080032007c0037001c
:1018600004082000be129000848f52005100320004
:10187000040c2000848f520075003a00e00f5600df
:101880001b003d001e1390007e1090008e189000eb
:101890001e199000ae1990003604be002605be0049
:1018a0000802be000a03be00e30107000802be00f2
:1018b0000a03be00004f78000000fb00cf80de006e
:1018c00001017800820178004c0207007e1490002c
:1018d0008e1c90001e1d9000ae1d90000004540050
:1018e00081845c0002055d0083855d002000370077
:1018f000be049000e08f5400220032001e109000c1
:101900007e1290008e1a90003004be002005be00aa
:10191000441f98000400be000801be00351f980057
:10192000100107000801be00004f78000000fb0016
:10193000cf80de001b0107004e1a9000be1a9000f7
:101940000001520081815a000002eb00020f980052
:10195000130f9800340f98008001eb00230f9800bc
:101960000e0c90009e0c90002e0d9000be0d90006d
:1019700078179800091f98001a1f98002b1f9800cd
:10198000090037009e1490007e159000190278001f
:10199000110009000485d800a400200011000900ee
:1019a0000480d800014f78000bc3b3001ecf450060
:1019b0002700370094e325002e009000e00f500030
:1019c0000100320084e22500de109000c20add0032
:1019d0007e1090008e1890001e199000ae19900095
:1019e0008502e900050033008301d1000281d300a4
:1019f0008180d3000080d300f9ff3700ef02600040
:101a000005024200144f7800110037005e1190006b
:101a10007e1490008e1c90001e1d9000ae1d900044
:101a2000e312b90001c3b300040078000000e9002c
:101a3000050033008b05d1000a85d3008984d300cb
:101a40000884d300f9ff370067426400014f420069
:101a50003d0290000404b200070032009d027800ad
:101a60001e427800844a7800850ee800e04f52005c
:101a700006003a00080037001e00fb008d007800c9
:101a80002e000700e10f4000030032006e119000ad
:101a90000201e800621798009e119000e881510051
:101aa000131798005e129000e00f520061ff3a0099
:101ab0006806660016003200ae129000e08f5200f9
:101ac000130034006e16900008c2b300850478003d
:101ad0003d0290000404b200040032001d027800b0
:101ae000084a7800840ee800050037008d00780071
:101af0000002200011000700e10f40000100320049
:101b00000c06e8008904e900f1ff3a006c17980020
:101b10000e13900016407800004f7800e04f500000
:101b200089fc3a004f06be006e1090004f05be00c3
:101b30004f04be000080fa00000006000000fa001a
:101b4000889fbe00010478008084eb00380290007a
:101b5000e20262003b003200040378009802900029
:101b60000620b20002003a00e08f520035003a0031
:101b70000490a0008004780034049800f90fb200ab
:101b8000e08f520002003a00a8029000050c780095
:101b9000ea8f540005003a000408b20003003a003e
:101ba00088007800d0002000e4ff070018029000b1
:101bb000d8029000850f52000b0032000402e800aa
:101bc00015c0b3001404980018027800094a780080
:101bd000040ce80024ff2500054a7800ea8f540031
:101be00018003a00050037000940780088007800a6
:101bf00018000700800478001200370038029000b7
:101c00000410b2000f00320018019000a8009000ec
:101c10004800900077fa070018029000840f5000e7
:101c200004003200380290000403b300340498002a
:101c30008084eb000002eb0014049800280290005e
:101c4000040c7800090078004f04be000080fa0000
:101c5000000006000200fa00889fbe000104780020
:101c6000004f780038029000840278000504b2002a
:101c7000020032000000fb0033003700e202620085
:101c800005003a000403b3001504980034049800da
:101c90000080eb002c003700d8049000e08f540047
:101ca00006003a00120020008e00780048009000e4
:101cb00050fa07001904980022003700a80290008b
:101cc000e08f520008003a0055ff25000430a000c4
:101cd00025049800050c78003404980025002000a5
:101ce000550498001504980018019000a800900071
:101cf000480090003ffa0700280290008082eb0025
:101d0000150498001e4a7800040ce800a4c0b30033
:101d10009e4f12000b003a00380290000410b200ef
:101d20000800320018019000a800900048009000c0
:101d300030fa07000002eb0014049800280290001b
:101d4000040c78001e00fb004f04be000080fa0067
:101d5000000006000000fa0000c0da000080fa006f
:101d6000000006006022b800060220000000d0003b
:101d70008180d2000482d2008582d2000000a000bf
:101d80000202520083825a00030031000202420024
:101d900083824a000000a1000603e900f3ff3a0035
:101da00000000600020ab900001bb9000200b800da
:101db0008100420081004300000006000000fa009c
:101dc000889fbe008a9fbe003004be002005be0072
:101dd0000404440085844c0006054d0087854d00b1
:101de0000898be000a90be000440e10005c8e1006a
:101df00006d0e10007d8e100020031006800400091
:101e00001008e8004f05be004f04be000080fa0035
:101e1000000006001000fa00889fbe008a9fbe00e6
:101e20000605be000404be003002be002003be0052
:101e3000049fbe000697be00110020000802520059
:101e400089825a000a035b008b835b004407980079
:101e50005507980066079800770798000498be0019
:101e60000698be003e02be002e03be000820e10020
:101e700009a8e1000ab0e1000bb8e1000100390057
:101e80008000eb004f05be00108810004f04be001c
:101e90000080fa00000006001400fa00889fbe00cf
:101ea0005b0007008a9fbe008c9fbe000006eb000f
:101eb0004c0798003c0798002c0798001c079800d6
:101ec0000c0f78000605be000404be000d042000bf
:101ed0004e039000be029000860343002e02900045
:101ee000e00f530003003d002a000700b3ff070086
:101ef0000200370027000700c6ff0700ce0290004f
:101f0000150f9800e08f52000900350045000700ca
:101f100014002000050020006033b80000007200ab
:101f20008180720002017300838173003800070012
:101f30000c06e8008d0f5600e5ff3a001e0a9000df
:101f4000e00f520004003d000802be000a03be007c
:101f50000e00780099ff07004eba9700e00f52007c
:101f600006003a003e04be002e05be005807980049
:101f7000690798007a0798000b0f98004f06be007b
:101f8000280007004f05be004f04be000080fa0085
:101f9000000006004f2bde0022000700868373003e
:101fa000858242004f23de00470798008682720038
:101fb00004024200350798009e0290004f2bde007d
:101fc0008582420006027200240798001e027800f3
:101fd0004f23de000402420086827200150798003b
:101fe0004f18de00000f72000e0007000802be004e
:101ff0000a03be0000004000818048000201490041
:1020000083814900020007000e00780000000600ee
:10201000500798006107980072079800030f980016
:10202000000006005e009000ee0090007e0190002f
:102030008e099000000006000000fa00881f78005a
:1020400018002000881f780093ff07008f87e900a1
:102050004f0478000080fa00000006000000fa003b
:10206000801feb008cff07008f87e9000080fa00db
:10207000000006000000fa00889fbe008a9fbe0094
:10208000e00f5000e08f5800e00f5900e08f59003a
:102090000c003d006044b8006055b80000005400da
:1020a00081805c0002015d0083815d0018002000da
:1020b0001600070008003d00190007000004eb00af
:1020c000050037000004eb001000070002003d008f
:1020d0001300070018002000d7ff0700e00f54008e
:1020e000060032006022b8006033b80000005200e1
:1020f00081805a0002015b0083815b004f05be00b6
:102100004f04be000080fa0000000600e00f5200fd
:10211000e08f5a00e00f5b00e08f5b0000000600dc
:102120006044b8006055b8000402540085825c0029
:1021300006035d0087835d00000006000000fa00d2
:10214000889fbe008a9fbe008c1f7800e00f500061
:10215000e08f5800e00f5900e08f59000d003d005e
:102160006044b8006055b8001c0020000000540016
:1021700081805c0002015d0083815d000820e10038
:1021800009a8e1000ab0e1000bb8e1000d003d0034
:10219000080037000006eb00e00f5200e08f5a0005
:1021a000e00f5b00e08f5b0006003d006044b8007c
:1021b0006055b8000402540085825c0006035d008f
:1021c00087835d00a5ff0700e00f56000600320080
:1021d0006022b8006033b8000000520081805a00cd
:1021e00002015b0083815b004f0678004f05be0053
:1021f0004f04be000080fa00000006000000fa0054
:10220000889fbe008a9fbe008c1f78000006eb00ee
:10221000e00f5000e08f5800e00f5900e08f5900a8
:1022200007003d006044b8006055b8001c00200065
:102230000000540081805c0002015d0083815d002c
:10224000e00f5200e08f5a00e00f5b00e08f5b0070
:1022500007003d006044b8006055b8000c00a200c3
:102260000402540085825c0006035d0087835d00e4
:102270000d000700e00f5600060032006022b80093
:102280006033b8000000520081805a0002015b00f8
:1022900083815b004f0678004f05be004f04be00ef
:1022a0000080fa0000000600889fbe008a9fbe00e2
:1022b0008c9fbe000404b8000506b80089044600df
:1022c00060854e000606b8000a054600e0854e000f
:1022d0000706b8008b054600040eb80089044600c6
:1022e0000a854e00e0854d00050eb8000a0546003f
:1022f0008b854e00060eb8008b0546000416b8000c
:102300000a0546008b854e000516b8008b05460071
:10231000041eb8008b0546000800be000a01be007e
:102320004f06be004f05be004f04be000000060071
:020000040000fa
:102330004343000032350000303000000049000007
:102340006e200000494400004c450000204d000074
:102350006f640000653a0000202500006400000062
:10236000496e000020520000582000004d6f000010
:1023700064650000005500006e6b00006e6f000089
:10238000776e00003a2000003078000025780000c9
:102390000000000011110000222200003333000071
:1023a0004444000055550000666600007777000041
:1023b0008888000099990000aaaa0000bbbb000011
:1023c000cccc0000dddd0000eeee0000cecd000044
:1023d000acab0000494400004c4500000025000063
:1023e000730900000925000063090000257500003d
:1023f0000925000075090000257500000d0a000080
:102400000000000044650000626f0000756e00006f
:1024100063650000005400006f70000000000000c1
:102420004d6f00006e690000746f000072000000c4
:10243000257300003a25000064000000546d000080
:102440007220000053760000630000005465000015
:102450006d700000000000004c43000044000000cc
:08246000040000001e4e000004
:020000040000fa
:102468001600fa00300798004107980052079800b4
:102478006307980074079800050f9800160f9800d6
:10248800270f98009e0890005e009000dc0507006a
:1024980000027800140798001e029000e00f520016
:1024a800570032001e029000c40a900025079800c9
:1024b8001e029000c40a90005e0290000402e90027
:1024c80004024200848242001e0290001512980005
:1024d8005e029000ae0990007e019000ce00900050
:1024e8001e0090001b0507006e019000be009000c2
:1024f8002e009000844802000000000000027800ce
:10250800840278001e029000050a78000e0a9000e6
:10251800e00f5200030032000e0a90009e02900065
:10252800050a78008649020000000000f4fa8200db
:102538000402e800f4fa8a0094f78200e00f5200df
:1025480007003a001e02900094f78a00f4fa82000d
:10255800e10f52000c003a003d0507000a00370061
:1025680024fb8200e00f520007003a0094f7820033
:10257800b40a90007e029000848f520002003e0050
:102588009e02900095f78a0064fb82000402e8002e
:1025980064fb8a0065fb82001e02900025129800e9
:1025a8001e029000b40a900014fb8200848f52002f
:1025b800030036001e029000340a900014fb8a00c3
:1025c8001e0290008482e8001e029000340a9000e7
:1025d800ea23b90044ef250004024300850078008f
:1025e800040078002a4a02000000000014002000bd
:1025f800040f78009a49020000000000020037002a
:102608000082eb00040f78001e027800e10f5200f0
:102618000b003a0024fb8200e00f52000800320051
:1026280094f78200b40a90007e029000848f5200d2
:1026380003003100b64d0200000000000000000059
:102648001e027800040078000080fa0000000600ee
:102658000400fa00100798008649020000000000f4
:102668001e029000e00f520002003a0094f7820028
:10267800010037001e029000040f78001e82e80057
:1026880004007800ca4a0200000000001e02780018
:10269800240a9000e00f5200050032009e027800e4
:1026a8006c82420004007800ca4a02000000000060
:1026b8001e82e8008400780080f425002a4a02007f
:1026c8000000000094fa82000402e80094fa8a00ec
:1026d80064fb82000402e80064fb8a009a49020055
:1026e8000000000024fb8200e00f520009003200c5
:1026f80094f782009e027800848f520004003a000a
:10270800b64d020000000000000000000100370084
:102718002b0607000080fa00000006000c00fa00f3
:1027280040079800510798000002eb00040f78005a
:10273800ce01070004fb8200140798004e029000a7
:10274800940278005e0290000482420024079800f8
:102758004e029000940278001e029000848f52006e
:102768000c0036004e029000940278002e02900071
:10277800848f520012003600ae0290001e029000b4
:10278800848f52000e00360014002000040f7800d9
:102798000b0037004e029000940278002e02900041
:1027a800848f520004003e00ae0290001e0290008a
:1027b800848f52000200360014002000040f7800b5
:1027c8004e029000ae029000050a78001e027800c2
:1027d800e00f52000700320094f782000482e800fc
:1027e80004007800ca4a0200000000002e00900091
:1027f800e3040700a30107000002780034079800eb
:102808003e029000e00f520003003a00b64d02006d
:1028180000000000000000000080fa000000060030
:102828000600fa00200798000002eb00040f780069
:102838002e029000e00f52000f0032008b010700bb
:1028480005fb82002e0290000482420014079800c3
:1028580094f782000482e80004007800ca4a020063
:10286800000000001e009000c50407008501070055
:1028780000027800040f78001e027800e00f520072
:1028880003003a00b64d02000000000000000000fe
:102898000080fa00000006000600fa0020079800f1
:1028a80086490200000000002e029000e00f52004e
:1028b80002003a0094f78200010037002e029000cf
:1028c800040f78001e027800b40a900015079800db
:1028d8009a490200000000001e02900004007800df
:1028e8000080fa00000006000c00fa00400798007b
:1028f800510798000002eb00040f78005e02900078
:10290800e40f5200020036004400200054079800eb
:1029180086490200000000004e029000e00f5200bd
:1029280002003a0094f78200010037004e0290003e
:10293800140798001e029000c41290002507980002
:10294800ae0290005e029000848f52005300320065
:10295800de0290002e029000848f52000c00360098
:1029680094f782009e029000848f52000e0032007d
:1029780094f78200b40a90005e029000848f52009f
:1029880009003e0014002000040f780006003700fc
:1029980094f782009e029000848f520002003a0051
:1029a80014002000040f78001e029000b40a900062
:1029b800350798001e029000c41290001e02900075
:1029c800340a9000848f520003003a001e029000df
:1029d800de029000350a98001e029000de02900088
:1029e800451298001e02900064029000e00f520009
:1029f800040035005e029000e50212001e029000fd
:102a0800650298001e029000d40290003e029000d9
:102a1800ea23b90044ef250004024300848f5200e2
:102a280018003a001e0290000482e80004007800b2
:102a3800ca4a0200000000001e029000b40a90007a
:102a480014fb8200848f5200030036001e0290009f
:102a5800340a900014fb8a001e0290008482e80069
:102a68001e029000340a9000ea23b90044ef2500c2
:102a78000402430085007800040078002a4a020016
:102a8800000000001e027800e10f520003003a0027
:102a9800b64d020000000000000000009a49020044
:102aa800000000000080fa00000006000400fa00a0
:102ab8001007980086490200000000001e029000de
:102ac800e00f520002003a0094f78200010037003c
:102ad8001e029000040f78001e82e80004007800af
:102ae800ca4a0200000000001e027800240a900072
:102af800e00f5200050032009e0278006c8242000e
:102b080004007800ca4a0200000000001e82e800a3
:102b18008400780040f525002a4a020000000000e1
:102b28009a4902000000000094f782009e02780093
:102b3800848f520010003a0024fb8200e00f5200fc
:102b480004003200b64d0200000000000000000042
:102b58000d003700a5fa8200f4fa8200848f520033
:102b680003003a000002eb0094f78a0006003700e1
:102b7800060207000400370024fb8200e00f520021
:102b8800010032000e0507000080fa000000060070
:102b98000600fa00200798000002eb00040f7800f6
:102ba8002e029000140798001e029000d402900094
:102bb80044f52500848f52000b003a001e02900055
:102bc800a40a9000e4f32500848f52000600320026
:102bd8001e029000240a9000e00f520002003a0002
:102be80014002000040f78001e027800040078000a
:102bf8000080fa00000006000400fa0010079800a0
:102c08001e029000040f78001e027800e00f5200a8
:102c18002c00320094f782009e027800848f5200c4
:102c28002800320086490200000000001e007800db
:102c3800d7ff070000027800e10f52001f003a009a
:102c48001e82e80004007800ca4a02000000000062
:102c58001e027800b40a900014fb8200848f520090
:102c6800030036001e027800340a900014fb8a0024
:102c78009e82e8001e027800340a9000ea23b90018
:102c880044ef250004024300850078000400780022
:102c98002a4a0200000000001e027800b40a9000d0
:102ca80094f78200340a9000848f520003003900a0
:102cb800b64d020000000000000000009a49020022
:102cc800000000000080fa00000006000800fa007a
:102cd800300798000002eb00040f78003e029000d5
:102ce800140798000002eb00240798001e009000cb
:102cf800a7ff070000027800e10f52002a003a00ff
:102d080074fb8200e00f520021003a001e0290007e
:102d1800b40a900094f78200340a9000848f52001d
:102d28000200390014002000040f78001e029000f1
:102d38000482e80004007800ca4a0200000000008b
:102d48001e029000b40a900014fb8200848f520087
:102d5800030036001e029000340a900014fb8a001b
:102d68001e0290008482e8001e029000340a90003f
:102d7800ea23b90044ef25000402430085007800e7
:102d8800040078002a4a020000000000060037000c
:102d98001e0290006c02420084007800e0f32500d7
:102da8002a4a0200000000001e0278000400780091
:102db8000080fa00000006000200fa008003eb0021
:102dc8000003eb008002eb000002eb008001eb0047
:102dd80042062000a11e290060c92100a0fd0700ad
:102de80000027800040f78001e027800e10f5200fc
:102df80004003a00502f0200000000000002780092
:102e0800040f78001e027800e10f52000a003a0011
:102e180015028000040220000502720014028800d6
:102e28001400200024fb8a000002eb0004fb8a0047
:102e380020490200000000000080fa00000006009f
:102e48000000fa001502800004022000050272004a
:102e5800140288000002eb0024fb8a005449020097
:102e6800000000000080fa00000006000000fa00e0
:102e780074fb82000402e80074fb8a000080fa00f8
:102e8800000006000400fa000002eb00040f7800be
:102e9800864902000000000074fb82000402e90079
:102ea80074fb8a0074fb8200e00f520047003a006e
:102eb800f4fa8200e00f5200440032002800370084
:102ec80024fa820034029000140798001e02900031
:102ed8006c02420004007800ca4a020000000000a8
:102ee8001e0290000482e80004007800ca4a02002a
:102ef800000000001e029000b40a900014fb82003b
:102f0800848f5200030036001e029000340a90009d
:102f180014fb8a001e0290008482e8001e029000c2
:102f2800340a9000ea23b90044ef25000402430064
:102f380085007800040078002a4a0200000000009a
:102f48001e029000b40a900094f78200340a9000a0
:102f5800848f5200020039001400200044fb8a00cc
:102f6800f4f98200e00f5200d5ff3a0034fb8200ea
:102f7800e00f52000d0032000900370097000700eb
:102f880000027800e00f5200020032001400200016
:102f980044fb8a0034fb82000402e90034fb8a0007
:102fa80034fb8200e00f5200f4ff3a0044fb820039
:102fb800e10f520005003a0014002000040f7800c9
:102fc800b64d020000000000000000009a4902000f
:102fd800000000001e027800040078000080fa005b
:102fe800000006000200fa00864902000000000006
:102ff80004fb8200040f78009a49020000000000d8
:103008001e027800040078000080fa000000060024
:103018000400fa000002eb00040f780004fb8200b1
:10302800140798001e029000040078000080fa003f
:10303800000006000000fa00f4fa8200040078009c
:103048000080fa00000006000400fa00100798004b
:103058001e029000e00f520002003a0094f782002e
:10306800010037001e029000040f78009e027800cd
:103078007a824200040078000080fa00000006000e
:103088000a00fa00200798003107980042079800c4
:103098000002eb00040f7800540020001407980089
:1030a80072ff0700f4fa8200be029000848f52007b
:1030b800450039001e0290000402e9001407980038
:1030c8001e029000ea22b9008402780044ef25002d
:1030d800848242001e027800f222b9002e0390007a
:1030e80004024300120020008500780004007800e4
:1030f800f3020700000278001e0f42001e02900033
:10310800e00f5200ebff3a00d5f982001e0278006a
:10311800f222b9002e03900004024300220020008e
:103128008500780004007800e502070000027800b6
:103138001e0f4200e5f982001e027800f222b90053
:103148002e0390000402430022002000850078002e
:1031580004007800da020700000278001e0f42001f
:103168001e027800f222b900ae02900004824200ea
:103178004200200081f4250004007800d0020700f6
:10318800000278001e0f42001e027800f222b900e9
:10319800ae029000048242003200200041f5250072
:1031a80004007800c6020700000278001e0f4200e3
:1031b8004e029000e00f5200030032004e039000d0
:1031c8006022b800048bbe002eff07001e027800a4
:1031d800040078000080fa00000006000a00fa00e7
:1031e8000002eb00040f780074fb8200e00f52002d
:1031f80058003a0004fb82000402e80004fb8a003d
:1032080004fb8200140798001e029000e00f520091
:103218000a003a00d5f9820025079800e4f98200ef
:10322800d4f98a002e029000e4f98a0054fb820047
:103238000402e80054fb8a006103070004008300cd
:103248009e029000848f520046003900010037002a
:1032580000000000d4f9820014027800e00f520048
:1032680003003a000082eb0004008b003e003700a8
:10327800d4f9820034029000340290003407980098
:103288003e02900094029000450798009e0290002c
:103298004e029000848f5200040031004e029000cc
:1032a80004008b00000000002f0037003e02900051
:1032b8000482e80004007800ca4a02000000000006
:1032c8003e029000240a9000e00f520005003200f0
:1032d8003e0290006c02420004007800ca4a0200d4
:1032e800000000003e029000b40a900014fb820027
:1032f800848f5200030036003e029000340a90008a
:1033080014fb8a003e0290008482e8003e0290008e
:10331800340a9000ea23b90044ef25000402430070
:1033280085007800040078002a4a020000000000a6
:103338003e029000b40a900094f78200340a90008c
:10334800848f5200c2ff390014002000040f780057
:10335800c0ff370034fb82000402e80034fb8a0017
:10336800010037000000000044fb8200e00f52001b
:103378000200320014002000040f78001e027800ba
:10338800040078000080fa00000006000200fa003d
:1033980074fb8200e00f520003003200140020008a
:1033a80044fb8a00270037000002eb0044fb8a0038
:1033b8000300370014fb82000402e90014fb8a00b2
:1033c80014fb8200ea22b9008402780044ef250049
:1033d8000482420014027800e00f5200f5ff320028
:1033e80014fb8200ea22b9008402780044ef250029
:1033f800048f42001e02780014029000940290008c
:103408001e027800150298001e02780094029000af
:103418001e03780064024300848f520005003a00be
:103428001e02780014029000940290001e02780098
:10343800150298001e0278001402900034029000d1
:1034480094f78a000080fa00000006000600fa00df
:10345800100798002107980094f782006c02420038
:10346800840078001e009000664a020000000000f8
:1034780094f782000482e80004007800ca4a020037
:10348800000000002e029000e10f420007003a0001
:1034980094f782000482e8008400780040f5250053
:1034a8002a4a0200000000000500370005fb8200e0
:1034b8002e029000048f42001e007800b001070021
:1034c8000080fa00000006000800fa0010079800c3
:1034d800210798003207980094f782002e03900085
:1034e80005002800868272006502980094f7820021
:1034f8006c024200840078001e0090002a4a0200f4
:103508000000000094f782000482e80004007800bc
:10351800ca4a0200000000003e029000e10f42008b
:1035280007003a0094f782000482e80084007800db
:1035380040f525002a4a0200000000000500370077
:1035480005fb82003e029000048f42001e007800b6
:103558008b0107000080fa00000006000600fa0050
:10356800100798002107980094f782006c02420027
:10357800840078001e0090002a4a02000000000023
:1035880094f782000482e80004007800ca4a020026
:103598000000000005fb82002e029000048f42000c
:1035a8001e007800760107000080fa00000006007f
:1035b8000600fa00200798002e02900034029000be
:1035c80034029000140798001e0290006c0242001a
:1035d80004007800ca4a02000000000074fb820060
:1035e800e00f520019003a001e0290000482e80021
:1035f80004007800ca4a0200000000001e02900081
:10360800b40a900014fb8200848f52000300360035
:103618001e029000340a900014fb8a001e029000db
:103628008482e8001e029000340a9000ea23b90060
:1036380044ef250004024300850078000400780068
:103648002a4a020000000000060037001e0290000f
:103658006c02420084007800e0f325002a4a020048
:10366800000000001e029000b40a900094f7820047
:10367800340a9000848f52000500360014002000a0
:10368800040f78001400200044fb8a000200370071
:103698000002eb00040f78001e0278000400780096
:1036a8000080fa00000006000800fa0020079800d1
:1036b80031079800be029000040028000403780037
:1036c80005037300860278002e029000050a780030
:1036d8002e02900034029000140798002e009000eb
:1036e800ca4a0200000000001e0290000482e8009e
:1036f80004007800ca4a0200000000001e02900080
:10370800b40a900014fb8200848f52000300360034
:103718001e029000340a900014fb8a001e029000da
:103728008482e8001e029000340a9000ea23b9005f
:1037380044ef250004024300850078000400780067
:103748002a4a0200000000001e029000b40a9000fd
:1037580094f78200340a9000848f520005003600e6
:1037680014002000040f78001400200044fb8a0095
:10377800020037000002eb00040f78001e027800f8
:10378800040078000080fa00000006000200fa0039
:10379800000f780055fb82001e027800050a7800a9
:1037a80005fb82001e027800150298000080fa00ce
:1037b800000006000800fa0020079800310798006a
:1037c800864902000000000004fb820014079800ec
:1037d8003e02900014027800e10f420003003a0014
:1037e8000002eb00040f7800250037002e0290003d
:1037f8009402780054fb8200848f52000800320043
:103808002e029000940290001e029000848f5200b5
:1038180003003e0014002000040f78001800370051
:103828002e029000140290009e02900084825200a2
:103838003e02900014027800848f52000e0031007e
:103848003e029000940278002e029000140390002b
:103858001e02900004025300848242003e0290003f
:10386800050a78002e009000c8ff07000002eb0050
:10387800040f78000200370014002000040f7800bd
:103888009a490200000000001e0278000400780037
:103898000080fa00000006000000fa001400200072
:1038a80044fb8a000080fa00000006000600fa00c7
:1038b800200798002e029000e00f52000600320008
:1038c8002e029000140798001e029000b412900077
:1038d800050f7800020037000002eb00040f7800a3
:1038e8001e027800040078000080fa00000006003c
:1038f8000600fa0010079800210798001e029000a1
:10390800e00f5200050032001e029000040f7800fc
:103918001e027800ae029000351298000080fa006e
:10392800000006000200fa00000f780001003700ce
:10393800000000006b000700a4f78200e10f5200ae
:10394800fbff3600b64d020000000000000000003a
:10395800f8ff37000c00fa001007980021079800bc
:103968003207980043079800540798000002eb00bc
:10397800040f78000d0037002e0290001e0242004e
:10398800144278009e0290009e824200fa82420011
:10399800844a78002e0290001e02420014427800e9
:1039a800e04f5200050032001e0fe8001e027800aa
:1039b800e70f5200f0ff360001003700000000005a
:1039c8009e0290000042eb00946298003e02900034
:1039d800e40f52000200360044002000340798002b
:1039e8001e029000be029000350a98001e02900048
:1039f800be029000451298001e0290000482e80062
:103a0800040078001c4a0200000000001e0290001a
:103a18006c024200040078001c4a0200000000000a
:103a28001e0290009e029000450298003e029000ff
:103a3800e50212001e029000650298001e02900026
:103a48009e029000150a98000080fa000000060007
:103a58000200fa000002eb00040f780009003700aa
:103a68001e027800ea22b9008402780044ef25009b
:103a78000482420004007800ea49020000000000c5
:103a88001e0fe8001e027800e40f5200f4ff360013
:103a980060f22500ea4902000000000000f325005a
:103aa800ea49020000000000e0f32500ea490200ac
:103ab8000000000080f42500ea4902000000000030
:103ac80040f52500ea4902000000000064f22500e4
:103ad800d4f98a0004f32500e4f98a000080fa008a
:103ae800000006000400fa0020003700dffc070091
:103af80044fa820004f0a7000402ea00040fe90077
:103b08001e0278004f22de00040f7800ddfc07005b
:103b18001e027800e00f520014003a0086490200a5
:103b28000000000074fa8200340290001407980024
:103b38001e0290000482e80004007800ca4a0200cd
:103b480000000000f4fa82000402e900f4fa8a0096
:103b580094fa82000402e90094fa8a009a49020061
:103b6800000000001e0090000901070094fa82007e
:103b7800e00f5200ddff3a000080fa000000060066
:103b88000200fa00000f780094f782009e02780085
:103b98001502980004fb82009e027800848f520070
:103ba8000800310094f782008482e800e4f982007a
:103bb8008500780004007800664a020000000000d2
:103bc8000d00370094f782008482e800d4f982005f
:103bd8008500780004007800664a020000000000b2
:103be800040083009e027800848f52000200310096
:103bf8001e02780004008b000080fa000000060016
:103c08000600fa001007980021079800a00220007b
:103c18004c4202000000000000027800040f780007
:103c28001e027800e00f5200210032002e029000a0
:103c3800e00f520007003a001e0290000402420002
:103c4800040078004c4202000000000000027800e6
:103c5800010037002e0290009e027800c40a9800e6
:103c68001e027800440a9000e00f520006003a0055
:103c78001e0078003c430200000000000002eb0038
:103c8800040f78000a0037001e0290000402420068
:103c9800840278001e027800440a9000050178002a
:103ca800510a2000040078004206020000000000cb
:103cb8001e027800040078000080fa000000060068
:103cc8001000fa00881f78005007980061079800d4
:103cd800720798000002eb00040f78006e02900053
:103ce80014027800e00f5200770032006e02900054
:103cf800140798001e02900014029000940290008d
:103d08001e029000150298001e0290009402900076
:103d18001e02900064024200848f520005003a009f
:103d28001e02900014029000940290001e0290005f
:103d3800150298001e0290001402900034029000b0
:103d480024079800ee029000350798003e02900084
:103d580014029000940290003e0290001502980010
:103d68003e029000940290003e02900064024200dd
:103d7800848f520005003a003e0290001402900021
:103d8800940290003e029000150298003e029000b6
:103d98001402900034029000440798001e02780034
:103da800f222b900de02900004824200ce029000a6
:103db800050a78001e027800f222b900de0290009f
:103dc80004824200ce029000fa8242001502980056
:103dd8001e027800f222b900de029000048242003e
:103de800ce029000a5129000250298001e027800cd
:103df800f222b900de02900004824200fe02900026
:103e0800350298001e027800f222b900de02900006
:103e180004824200ce029000b50a90004502980044
:103e28007e029000e30f52000a003a004e02900012
:103e3800240a9000e00f5200060032001e027800ab
:103e4800f222b900de029000048242002500200020
:103e5800350298001e027800f222b900de029000b6
:103e680004824200ce029000c512900055029800cc
:103e78001e027800f222b900de029000048342009c
:103e88006022b80064039800750398001e02780049
:103e9800f222b900de029000048442004e02900033
:103ea80014129000040078000c000700000278004b
:103eb800040c98001e0fe800ce0290002e0290001d
:103ec800848f52009fff3a001e0278000400780099
:103ed8004f0478000080fa00000006000600fa008f
:103ee800200798006022b800048fbe000700370042
:103ef8002e0290000402e900240798001400200014
:103f0800050020001e0f42005e974a002e02900016
:103f18009442780054cab30084cf5200f4ff3200b0
:103f28001e02be008502d1000482d300048fbe00a9
:103f38001e027800040078000080fa0000000600e5
:103f48000800fa00300798003e029000e00f520087
:103f580002003a0094f78200010037003e02900008
:103f6800040f78001e0278001412900014079800bd
:103f78001e009000d9ff070000027800240798006f
:103f88002e029000040078000080fa00000006006d
:103f98000200fa00000f78001e027800440a900020
:103fa800040078003c430200000000001e00780076
:103fb8003c430200000000000080fa0000000600f8
:103fc8000200fa00d4f9820014027800e00f5200cf
:103fd80003003a000082eb0004008b000700370062
:103fe800d4f982003402900034029000040f780063
:103ff8001e0278001402900004008b000080fa0072
:10400800000006000200fa0094f78200040f78000e
:104018001e027800040078000080fa000000060004
:104028000200fa0024fb8200e00f520003003a006d
:1040380014002000040f78000800370074fb820089
:10404800e00f520003003a0024002000040f78001b
:10405800020037000002eb00040f78001e0278000f
:10406800040078000080fa00000006000400fa004e
:10407800100798001e029000040f78001e0290009e
:10408800e00f5200370032001e027800b40a900098
:1040980094f78200340a9000848f52003100310076
:1040a8001e02780064029000e00f520005003500ff
:1040b80094f78200340a9000e50212001e0278008c
:1040c800650298001e027800d40290001e02780053
:1040d800340a9000ea23b90044ef250004024300a3
:1040e800848f52001b003a001e82e800040078000a
:1040f800ca4a02000000000094f78200b40a900047
:104108001e027800350a98001e027800b40a900052
:1041180014fb8200848f5200030036001e027800d0
:10412800340a900014fb8a009e82e8001e02780080
:10413800340a9000ea23b90044ef25000402430042
:1041480085007800040078002a4a02000000000078
:104158000400370094f78200b40a90001e02780029
:10416800350a98000080fa00000006000400fa00f2
:10417800100798001e029000040f78001e0290009d
:10418800e00f5200290032001e027800b40a9000a5
:104198001e02780044129000848f520023003200df
:1041a8001e82e80004007800ca4a020000000000ed
:1041b8001e027800c41290001e027800350a98008a
:1041c8001e02780064029000e00f520005003500de
:1041d8001e027800340a9000e50212001e027800e0
:1041e800650298001e027800b40a900014fb820051
:1041f800848f5200030036001e027800340a9000b3
:1042080014fb8a009e82e8001e027800340a90009f
:10421800ea23b90044ef2500040243008500780032
:10422800040078002a4a0200000000000080fa001a
:10423800000006000a00fa0040079800ce0290002d
:104248000042eb00844a7800f4fa820024079800c0
:10425800f4fa8200f222b900040078004c4202000d
:104268000000000000027800140798001e02900069
:10427800e00f52005e0032002e0290000001eb00b9
:10428800840078001e0090007dfb07000002780083
:10429800240798000002eb00340798004d0037000f
:1042a8003e029000f222b9009e0290000482420071
:1042b800340290006123b8000082eb008082eb009a
:1042c8000602420087824a003600200007002000cc
:1042d800860f5200878f5a0011003e000406010025
:1042e80003003700050037000700370009003700d2
:1042f80024c5b300044f78000c00370024c4b30071
:10430800044f78000900370034c5b300044f780023
:104318000600370044c4b300044f78000300370098
:104328000042eb00044f7800000000003e029000bd
:10433800f222b9009e0290000482420024009000fc
:104348003e029000f222b9009e02900004824200d0
:10435800840b90003e029000f222b9009e02900069
:1043680004824200440390009e02fb003e0290003b
:10437800f222b9009e0090000482400014029000ce
:10438800801f7800871f7800861f7800851f7800b7
:10439800841f7800f41e2900841f78004e009000c6
:1043a8006606020000000000ec8757004e009000ef
:1043b800540602000000000000027800ce029000bf
:1043c80004824200440798003e0290000402e8007c
:1043d80034079800be0290002e029000848f52008d
:1043e800afff39001e0090003c43020000000000af
:1043f8000080fa00000006000200fa0094f782002c
:10440800e4029000050f780094f7820095f7820087
:10441800b50a9000e5821200650298001e02780035
:10442800040078000080fa00000006000600fa0088
:1044380010079800210798001e029000040f7800ca
:1044480086490200000000001e02780094027800ed
:104458001e027800740b90001e027800041290006f
:1044680084b2b900848242001e02780015029800c6
:104478001e0278008002eb00650a98001e02780090
:10448800940278001e027800250298001e02780027
:10449800940278001e027800740a90000403e90070
:1044a8001e0278000412900084b2b900848242008f
:1044b8001e027800350298001e0278008082eb0008
:1044c800151298001e0278008082eb0025129800d1
:1044d8002e029000e00f520010003a001e027800f1
:1044e80044029000e00f5200160032009e0278004d
:1044f8006882420004007800dc1a02000000000014
:1045080000027800e10f52000e003a00b64d02009a
:1045180000000000000000000a0037009e0278003a
:104528006882420004007800ea49020000000000a6
:104538009e0278007282420004007800ea49020074
:10454800000000009a49020000000000140020004a
:10455800040078000080fa00000006000c00fa0051
:104568003007980041079800224f98000002eb009e
:10457800040f78003e029000e00f52002a0032003b
:10458800a00220004c420200000000000002780057
:10459800140798001e029000e00f5200220032001b
:1045a800be0290004e02900084aab9000402e800fe
:1045b800240798002e0090004c42020000000000e2
:1045c80000027800840278001e029000050a780034
:1045d8001e02900014027800e00f52000f00320013
:1045e8001e029000be029000750a98001e029000fc
:1045f800ce02900005129800110020001e009000c5
:104608008aff07001e029000ae4a9000056a9800d3
:104618001e029000040f7800030037001e0090006f
:104628003c430200000000001e02780004007800ed
:104638000080fa00000006000400fa0020479800f5
:10464800a00220004c420200000000000002780096
:10465800040f78001e027800e00f52002d0032008f
:104668001e0278008002eb00150298001e027800f6
:104678008002eb00050a78001e0278008002eb0039
:10468800250298001e0278008002eb00350298008f
:104698001e0278008002eb00650a98001e0278006e
:1046a80015002000750a98001e0278008002eb00b1
:1046b800051298001e0278008082eb0015129800ff
:1046c8001e0278008082eb00251298001e027800f6
:1046d800ae429000056a98009e0278006882420007
:1046e80004007800ea490200000000009e027800f9
:1046f8007282420004007800ea49020000000000cb
:104708008001eb000001eb008000eb001e00780048
:10471800040007001e027800040078000080fa00f8
:10472800000006001000fa004007980051079800a2
:1047380062079800730798000002eb00040f7800e6
:104748004e02900014079800010037000000000096
:1047580086490200000000001e029000e40a900052
:104768001e029000740a9000848f520003003900e2
:104778007e029000e20f520017003a007e0190007e
:10478800de0090001e009000f60107001e02900057
:10479800140a9000e00f52000b0032001e02900035
:1047a8007202420004007800dc1a020000000000d7
:1047b80000027800e10f520003003a00b64d0200f3
:1047c80000000000000000009a49020000000000fc
:1047d80014002000500037006e029000e00f5200d5
:1047e80004003a009a490200000000000002eb00b1
:1047f800490037001e027800e00f520006003a0018
:104808006402470004007800ca1b02000000000090
:1048180014002000040f78009a49020000000000ec
:104828003a1702000000000086490200000000005c
:104838001e02900014129000e10f420003003a009b
:104848001e0290008002eb00151298001e029000d4
:1048580024129000e10f420003003a001e0290006b
:104868008002eb00251298009a490200000000001f
:10487800ec024700640247008500780004007800d5
:10488800de1b02000000000000027800e00f52006a
:104898001c003a001e009000a202070000027800e7
:1048a800e00f520012003200ee0290001e0290004b
:1048b8006802420085007800040078002a1a020085
:1048c800000000001e0090002e020700461702009c
:1048d8000000000000027800e00f52009bff3a0041
:1048e800b64d0200000000000000000098ff3700ed
:1048f8001e00900023020700461702000000000077
:1049080093ff37001e0090001e02070046170200a2
:10491800000000000002eb00040078000080fa00ac
:10492800000006000e00fa003007980041079800c2
:1049380052079800630798003e02900014079800f9
:104948000002eb00240798001e029000e40a900081
:104958001e029000740a9000848f520003003900f0
:104968006e029000e20f520023003a006e019000a0
:10497800ce0090001e0090007a0107001e029000f1
:1049880024129000e10f420013003a001e0290002a
:10499800140a9000e00f5200140032001e0290002a
:1049a8007202420004007800dc1a020000000000d5
:1049b80000027800e00f52000c0032005e02900006
:1049c800e00f5200090032005e029000150020003e
:1049d800050a7800050037001e0290002412900096
:1049e8008402e8001e02900025129800140020009e
:1049f800040f7800020037000002eb00040f780073
:104a08001e027800040078000080fa00000006000a
:104a18001200fa0050079800610798007207980082
:104a2800030f98000002eb00040f78005e0290006c
:104a380014079800010037000000000086490200b2
:104a4800000000001e029000640a9000e00f52006f
:104a58003e0032001e029000b40290002507980024
:104a6800ee0090001e009000a30107000e0a9000bf
:104a7800e00f52001f003a001e029000640a9000e6
:104a88008402e9001e029000650a98001e02900048
:104a980014027800e00f520006003a0006200200d7
:104aa8000000000000027800840278001e029000d6
:104ab800150298001e02900044029000e00f520078
:104ac8001e0032001e0290006802420004007800b6
:104ad800dc1a02000000000000027800e10f52001a
:104ae80016003a00b64d0200000000000000000069
:104af800120037001e029000ae02900035029800a6
:104b08001e029000140a9000e00f52000b003200c1
:104b18001e0290007202420004007800dc1a0200b3
:104b28000000000000027800e00f5200030032008d
:104b3800b64d020000000000000000009a49020083
:104b480000000000140020005d0037007e02900085
:104b5800e00f520004003a009a49020000000000e9
:104b68000002eb00560037001e027800e00f5200ea
:104b780006003a006602470004007800ca1b0200db
:104b88000000000014002000040f78009a49020079
:104b9800000000003a1702000000000086490200e9
:104ba800000000001e02900014129000e10f420065
:104bb80003003a001e0290008002eb0015129800d4
:104bc8001e02900024129000e10f420003003a00f8
:104bd8001e0290008002eb00251298009a490200fc
:104be80000000000ee0247006602470085007800da
:104bf80004007800de1b02000000000000027800bc
:104c0800e00f520029003a001e009000a30107009f
:104c180000027800e00f52001f0032001e029000d0
:104c280014027800e00f520009003a008649020099
:104c3800000000001e02900014029000040078009a
:104c48003a200200000000009a490200000000001b
:104c5800fe0290001e029000720242008500780059
:104c6800040078002a1a0200000000001e009000cc
:104c78004401070046170200000000000002780007
:104c8800e00f52006cff3a00b64d02000000000031
:104c98000000000069ff37001e009000390107007e
:104ca800461702000000000064ff37001e00900055
:104cb8003401070046170200000000000002eb0064
:104cc800040078000080fa00000006000c00fa00da
:104cd8003007980041079800520798003e0290005c
:104ce800140798000002eb00240798001e029000a9
:104cf800640a9000e00f520027003200ce009000b6
:104d08001e009000fc0007001e029000640a90003c
:104d18008402e9001e029000650a98001e029000b5
:104d280014129000e10f420013003a001e02900096
:104d380044029000e00f5200140032001e0290005e
:104d48006802420004007800dc1a0200000000003b
:104d580000027800e00f52000c0032005e02900062
:104d6800e00f5200090032005e029000150020009a
:104d7800050a7800050037001e0290001412900002
:104d88008402e8001e02900015129800140020000a
:104d9800040f7800020037000002eb00040f7800cf
:104da8001e027800040078000080fa000000060067
:104db8000c00fa0040079800510798004e02900036
:104dc800140798000002eb00240798001e029000c8
:104dd800640a9000e00f52000c0032001e0290009e
:104de800b402900035079800de0090001e00900085
:104df800c10007001e029000be0290003502980014
:104e080014002000040f7800020037000002eb00b5
:104e1800040f78001e027800040078000080fa0071
:104e2800000006000400fa001007980086490200f6
:104e3800000000001e029000e40a9000050f7800b0
:104e48009a490200000000001e0278000400780061
:104e58000080fa00000006000600fa00200798000b
:104e68002e029000040f780086490200000000001e
:104e78001e027800f40a90001e027800640a90006e
:104e880004825200140798009a49020000000000aa
:104e98001e029000040078000080fa00000006005e
:104ea8000400fa00100798001e029000e40a90001f
:104eb800050f78001e027800040078000080fa00d0
:104ec800000006000400fa00100798001e02900077
:104ed800040f78001e02780014027800e00f5200d8
:104ee800050032001e0278001402780004007800e1
:104ef8003c430200000000001e0078003c43020012
:104f0800000000000080fa00000006000200fa001d
:104f1800000f78001e027800341290000400780018
:104f28000080fa00000006000400fa00000f780074
:104f3800110798001e0278009e0290003512980012
:104f48000080fa00000006000200fa00000f780056
:104f58001e027800046a9000044078000080fa007d
:104f6800000006000600fa00000f780011079800fc
:104f7800220798001e02780004129000e00f5200e9
:104f88000d003a001e02780014027800e00f52006b
:104f980052003a001e0278001402900004007800c3
:104fa800ba200200000000001e0278008002eb0018
:104fb80015029800490037002e029000e00f5200b9
:104fc8001b003a001e027800841290001e0278002e
:104fd80024029000050178009e00900004007800eb
:104fe80030060200000000001e027800a4029000b3
:104ff8001e02780004129000848242001e0278008b
:10500800250298001e027800a40290001e02780073
:1050180014029000848f5200300039001e0278007c
:10502800940278001e027800250298002b003700b1
:105038001e027800841290001e027800340290004c
:10504800050178009e0090000400780030060200f8
:10505800000000001e027800b40290001e027800d2
:10506800041290000402ea00848242001e027800c2
:10507800350298001e027800b40290001e027800e3
:1050880014027800848f5200080031001e02780054
:10509800940290001e027800041290000402ea00b4
:1050a800848242001e027800350298002e02900089
:1050b800e20f520009003a001e027800640a9000cc
:1050c800e00f5200050032001e027800640a9000ca
:1050d8008402e9001e027800650a98001e02780022
:1050e800640a90008402e8001e027800650a9800ad
:1050f8000080fa00000006000400fa00000f7800a3
:10510800110798001e02780014027800e00f520080
:105118001a0032001e027800b40290001e027800c5
:1051280004129000848242001e0278003502980022
:105138001e027800b40290001e027800140290004b
:10514800848f5200040039001e027800940278000f
:105158001e027800350298001e0278008412900022
:105168001e0278003402900005017800840078005f
:105178001e00900030060200000000000080fa00c7
:10518800000006000200fa00000f780086490200bd
:1051980000000000130037001e027800140a900077
:1051a800e00f5200140032009e0278007282420022
:1051b80004007800dc1a02000000000000027800f9
:1051c800e00f520002003200501c020000000000f4
:1051d8001e027800241290008402e9001e02780062
:1051e800251298001e02780024129000e00f520049
:1051f800e9ff3c0001003700000000001e027800b3
:105208008082eb00251298009a49020000000000f5
:105218008649020000000000130037001e027800d3
:1052280044029000e00f5200140032009e02780001
:105238006882420004007800dc1a020000000000c6
:1052480000027800e00f520002003200501c0200f9
:10525800000000001e027800141290008402e90089
:105268001e027800151298001e0278001412900091
:10527800e00f5200e9ff3c00010037000000000089
:105288001e0278008082eb00151298009a490200ed
:10529800000000000080fa00000006000400fa0088
:1052a8001007980086490200000000001e029000c6
:1052b800640a9000e00f520003003a001400200036
:1052c800040f7800020037000002eb00040f78009a
:1052d8009a490200000000001e02780004007800cd
:1052e8000080fa00000006000400fa001007980089
:1052f8001e029000640a9000e00f520003003a007a
:1053080014002000040f7800020037000002eb00b0
:10531800040f78001e027800040078000080fa006c
:10532800000006000400fa001007980086490200f1
:10533800000000001e029000e40a90001e02900087
:10534800740a9000848f520003003a001400200071
:10535800040f7800020037000002eb00040f780009
:105368009a490200000000001e027800040078003c
:105378000080fa00000006000400fa0010079800f8
:105388001e029000e40a90001e029000740a900029
:10539800848f520003003a0014002000040f7800a4
:1053a800020037000002eb00040f78001e027800ac
:1053b800040078000080fa00000006000600fa00e9
:1053c80010079800210798001e029000040f78002b
:1053d80086490200000000001e02780014129000a6
:1053e800e10f420003003a001e0278008002eb0041
:1053f800151298001e02780024129000e10f420056
:1054080003003a001e0278008002eb002512980083
:105418009a490200000000001e027800640a900009
:10542800e00f520006003a009e02780072824200a5
:10543800ae00900004007800b21a020000000000dc
:105448001e0078004fff07000080fa0000000600e9
:105458000200fa00000f780001c3b3001e007800b4
:105468000601070052c0b300810020001e0078002a
:10547800e1000700c2c0b300b10020001e007800a0
:10548800dd000700d2c5b300d10020001e0078005f
:10549800d900070032c9b300e10020001e007800df
:1054a800d500070012cbb300f10020001e007800e1
:1054b800d1000700e2c0b300010120001e007800ff
:1054c800cd000700b2c3b300110120001e00780010
:1054d800c900070032c7b300210120001e00780070
:1054e800c500070022c4b300310120001e00780067
:1054f800c10007000041eb00510120001e007800a8
:10550800bd00070082c1b300810120001e007800a1
:10551800b9000700d2c1b300910120001e00780035
:10552800b5000700c2c1b300a10120001e00780029
:10553800b100070072ccb300b10120001e00780052
:10554800ad00070002cbb300d10120001e00780097
:10555800a900070062cbb300110220001e007800ea
:10556800a5000700a2ceb300310220001e0078007b
:10557800a10007000041eb00510220001e00780046
:105588009d00070092c1b300610220001e00780050
:105598009900070092c0b300210020001e00780087
:1055a80095000700e2c2b300110020001e00780039
:1055b8009100070012c0b3008000eb001e007800c5
:1055c8008d000700f2c0b300310020001e007800f3
:1055d8008900070012c4b300810020001e00780073
:1055e8008500070072cdb300710020001e0078000e
:1055f800810007001e0278002442900004417800d0
:10560800910020001e0078007b00070022c7b3002d
:10561800310120001e007800770007000041eb00f0
:10562800710120001e007800730007000002eb00e3
:10563800040078000080fa00000006000600fa0066
:1056480010079800414798005247980040002000f2
:105658008f0b070000027800040f78001e02780004
:105668009e029000050a78001e027800ce42900043
:10567800254298005e429000e04f52001700320029
:105688006536800004f82f0084826200c40220007e
:10569800050272006436880045348000f40f2c003f
:1056a800848262000480200005027200443488006d
:1056b8004534800004fc2f00048262009400b3008b
:1056c8004434880024132000141388001400200098
:1056d8002413880044002c000413880011c0b30070
:1056e8001e0078001c0007001e00780058ff070005
:1056f8001e027800040078000080fa00000006000e
:105708000400fa00008fbe0001003700000000000e
:10571800051380000402200004826200e00f52009a
:10572800faff3a0044138000044378001e02be00ca
:10573800a70180000500780004027800a001880015
:10574800064a7800a70188000002eb0004007800f0
:105758000080fa00000006000400fa00000f78003c
:10576800214798001e02780014027800e00f5200ca
:10577800060032001e027800140278002e409000c5
:10578800040001000002eb000100370034fa200099
:10579800040078000080fa00000006000200fa0009
:1057a8000200370044138000044f7800051380007e
:1057b8000402200004826200e00f5200f9ff320068
:1057c8000080fa00000006000000fa00010037001f
:1057d800000000009570800004002100048262002f
:1057e800e00f5200faff3a000002eb0004007800d4
:1057f8000080fa00000006000600fa00000f78009a
:1058080011079800424798008040eb001e0078007e
:10581800d1ff0700e1ff0700ebff07009e029000a1
:10582800f403200004826200140798001e0290000e
:10583800441388004e4290000402fb004413880081
:10584800640247006122b9000400be00acff0700f3
:10585800640247006122b9000400be00a8ff0700e7
:1058680011c0b3001e007800bbff07000002eb0068
:10587800040078000080fa00000006000400fa0026
:10588800000f7800214798008040eb001e00780048
:10589800b1ff0700c1ff0700cbff07002e429000b1
:1058a8000402fb00441388000e82e8006122b9005c
:1058b8000400be0092ff070011c0b3001e0078006c
:1058c800a5ff07000002eb00040078000080fa0042
:1058d800000006000a00fa00000f7800214798002f
:1058e8002207980033079800440798004e0290005a
:1058f800e00f520021003c008040eb001e007800c1
:1059080095ff0700a5ff07004e009000aeff0700b7
:105918004e029000e00f520016003c002e4290000c
:10592800f443b20024479800ae42900004c8b30084
:1059380004c27200244798002e4290000482fb00a3
:10594800441388000002eb00441388002e009000e6
:10595800be0090006aff07002e009000be00900075
:1059680067ff070011c0b3001e0078007aff070028
:105978000200370024fa2000010037000002eb0083
:10598800040078000080fa00000006000800fa0011
:10599800000f780012079800230798003107980035
:1059a8003e029000e00f520013003c008040eb00e4
:1059b8001e00780068ff070078ff070082ff0700d5
:1059c8003e029000e00f520009003c00d403200082
:1059d800441388001e009000ae00900048ff0700a6
:1059e80011c0b3001e0078005bff070002003700fb
:1059f80024fa2000230037001e029000ae02900017
:105a08009601800085037800970188000000000057
:105a18000402780014427800960188000000000013
:105a28000402fb0067026200e60f520003003a001e
:105a3800a1c3b3001e00780090ff07001e0290006b
:105a4800ae029000960180008503780097018800d7
:105a580000000000040278001442780096018800d3
:105a6800000000000402fb0067026200e70f52001a
:105a780003003a00b1c3b3001e0078007fff07009f
:105a88003e029000040078000080fa000000060042
:105a98000800fa00000f7800120798002307980002
:105aa800310798008040eb001e0078002aff0700ad
:105ab8003aff070044ff0700f40f20004413880052
:105ac8001e009000ae0090000dff07001e0290001f
:105ad800ae02900096018000850378009701880047
:105ae8000000000004027800144278009601880043
:105af800000000006f4362001e029000ae0290009a
:105b0800a70180000500780004027800a001880041
:105b1800064a7800a701880011c0b3001e0078006b
:105b28000dff07000002eb00040078000080fa0077
:105b3800000006000800fa003007980080002000e6
:105b4800530a070000027800140798008040eb0011
:105b58003e00900000ff070010ff07001aff070033
:105b6800f40f200044138800640247006122b80043
:105b7800848fd2008582d2000400be00e0fe0700b8
:105b88004e4290000402fb006f026200e30f5200d5
:105b98004e0034000002eb00441388000002eb00c2
:105ba800441388001e029000650242006122b90079
:105bb8000400be00d2fe07000002eb004413880078
:105bc8000002eb00441388001e0290000402e80063
:105bd8006122b9000400be00c9fe07001e02900041
:105be8006122b9000400be00c5fe07001e02900035
:105bf8000482e8006122b9000400be00c0fe07006c
:105c08001e02900054429000634252009e0290008f
:105c1800d44298001e029000544290000402fb00f7
:105c2800040078001a0a070000027800840278004d
:105c38001e029000350298000042eb00044f7800e5
:105c48000042eb00044f78000b0037000002eb0025
:105c5800441388001e029000b40290001e4378008e
:105c68000682fb00048242006122b9000400be00e3
:105c7800a3fe07001e4fe8001e4278008482fb0046
:105c88001e029000544290000402fb00848f5200d0
:105c9800eeff35000002eb00441388000002eb0021
:105ca800441388001e029000630242006122b9007a
:105cb8000400be0092fe07001e029000640242002b
:105cc8006122b9000400be008dfe070011c0b300b8
:105cd8003e009000a0fe07001e029000040078001d
:105ce8000080fa00000006000800fa00100798007b
:105cf80021079800624798008040eb001e00900042
:105d080095fe0700a5fe0700affe0700f407200078
:105d1800441388006e4290000482fb006302420034
:105d2800441388000002eb00441388006172b80035
:105d38008e8fd2008582d2000400be0070fe07005c
:105d48006172b8008e8fd2008582d2000400be0036
:105d58006bfe07001e029000244290000402fb0024
:105d6800441388006172b8008e8fd2008582d200f9
:105d78000400be0062fe07001e029000344290003c
:105d88000402fb00441388001e0290003442900075
:105d98000442e8009e029000b44298006172b80084
:105da8008e8fd2008582d2000400be0054fe070008
:105db8006172b8008e8fd2008582d2000400be00c6
:105dc8004ffe07000f0037002e02900014427800a3
:105dd8000402fb00441388002e0290000402e8002d
:105de800240798006172b8008e8fd2008582d20095
:105df8000400be0042fe07006e4290000442e90023
:105e0800644798006e429000e04f5200eeff3a005f
:105e180031c3b3001e00900098fe0700003e290021
:105e280041002000790f070051c3b3001e00900005
:105e380092fe070011c0b3001e00900046fe070046
