:020000040000fa
:080000000002040000000000f2
:020000040000fa
:10000800ee020000ee020000ee020000ee02000028
:10001800ee020000ee020000ee020000ee02000018
:10002800ee020000ee020000ee020000fc550000a7
:10003800ee020000ee020000ee020000ee020000f8
:10004800ee020000ee020000ee020000ee020000e8
:10005800ee020000ee020000ee020000ee020000d8
:10006800ee020000ee020000ee020000ee020000c8
:020000040000fa
:100400002f5526000eff27000e0188000000000077
:10041000000020000000e000020032000001200087
:10042000200288000c000700200f2500010020009a
:100430000f000700000020000000e0000200320072
:100440000000020000000000bc5802000000000094
:100450000040da000000fe00200820000000e0005c
:1004600002003200002020009001880000000600f9
:10047000a1028800800078000000eb001a0037001d
:10048000e280400054a0b4009101ba00e280400034
:1004900054a0b4009102ba00e280400054a0b4001d
:1004a0000002eb00472bde00f507b200a601880032
:1004b000602ce10008003a000049eb000201e8006e
:1004c000020039003420ec0002f0a0008301e900b2
:1004d000f9ff3e00040037006128e100010032000e
:1004e0000082eb00040007001101ba000200e000e6
:1004f000e3ff3a000000060004d0a300e20f490029
:100500001c003900810278003549ba000201e80078
:10051000020039003420ec0002f0a0008301e90061
:100520000f0032002549ba000201e800020039003c
:100530003420ec0002f0a0008301e9000800320042
:100540000400e0000600320015c9ba000201e8000c
:10055000020039003420ec0002f0a0008301e90021
:100560008180e80054a0b4000300e000e2ff3a00fc
:10057000000006009102ba00055978008301e900e5
:10058000f7ff3200c82ade00055978008301e90030
:10059000f3ff32000400e000f1ff320011d9ba008d
:1005a000eeff37001e4f0400000000008a460400e2
:1005b000000000009e56040000000000b659040030
:1005c00000000000de59040000000000e82a0400da
:1005d00000000000623f0400000000000040da005c
:1005e0000000fe000a00fa00e20f500022003e0068
:1005f000340b8300e10f52000600320087232000f5
:10060000462320002423200005232000e08f5300f0
:1006100004003a00872220004622200024222000e5
:1006200005222000000028001500600003003a00a9
:10063000800b780007002800958a73000540200091
:100640009482620001003a0014a0a00082027800a7
:1006500006003700940378000710b200fdff320057
:10066000b103fb00070b78008502e900e08f520020
:10067000f8ff3a0008003700340020001007980007
:1006800032079800040f7800210798000e007800c8
:10069000330a07003e019000020078000080fa0053
:1006a000000006000000fa00889fbe008004780069
:1006b000400b8300e00f500004003a000f000700d9
:1006c0000084eb00e00f500008003500480b830069
:1006d000e08f5400050032000900440007000700c5
:1006e000e00f500001003d000084eb00080078009e
:1006f0004f04be000080fa00000006000000fa006f
:10070000e00f500004003a00a4162600440b8b00b2
:1007100000027800060037000082eb002555260015
:10072000850f500002003e00400b8b000002eb00e2
:10073000040078000080fa000000060003f0a20028
:10074000889fbe008a9fbe008c1f7800c6000700ed
:10075000cd0033006450e1004f0032006420e1001e
:100760005200320003826c0007003b000905d000f4
:100770000306d000820f54000c065d000200390011
:100780000200320089017800030678008582550056
:1007900004003d000003fd008103fd008502ea0026
:1007a0008b854200840f720002003b006000100045
:1007b000e08018006011b8000005eb007a28e10025
:1007c0000a00390006007800c75ddd00f707b200b7
:1007d000878075002d003700828171000a01780042
:1007e000610560008180d1000080d3008502e900ae
:1007f000f9ff3b00060440008784480002003b00ec
:1008000060041400e0841c000988a3000700320083
:100810008a81710082817100610164008904d100c4
:100820000884d3008b05e800170037000978a3007f
:1008300013003a000b00e000130034008b05e900c0
:100840000804440089844c000a4474000978a30019
:100850000d003a000b00e000070034008b05e900b2
:100860000804440089844c0001003a000b00200079
:100870000978a300f7ff32000001eb000200370007
:10088000828171000a017800510007000cf0a70076
:1008900001f0a000850037006420e10002003a006a
:1008a000838f6c00850033000801be000200be008b
:1008b0007e003700889fbe008a9fbe008c1f780094
:1008c000690007007000330003866c006450e1008b
:1008d0002e0032006420e100330032006150e1005c
:1008e0002f0032006120e100310032008585550083
:1008f000eb07b000090020000804200005003700c5
:100900000804440089844c000a00310006034300b7
:1009100087834b000001530081815b00f8ff3300a7
:100920000203be000800a0000804440089844c00b3
:10093000f6ff3900c639dd00830173000100320083
:10094000130020008904d1000884d3000998a30073
:10095000050032000800a7000300a0008904d100b0
:100960000884d3008b05e8008904d1000884d300f3
:100970000001eb000281d2001500070001f0a10088
:100980000cf0a70001f0a000480037006420e1004f
:100990004a0032000801be000200be00f7ff370027
:1009a0006120e100450032006000b800f3ff37002d
:1009b0000000200001f82700f0ff37004f89de001b
:1009c00082017800740037006011b800820037009f
:1009d00081002000618055000b003d000b002000cd
:1009e00061fe2f000100e1001d00340082817100d2
:1009f000610164008904d1000884d3000000e8008c
:100a0000faff3a00710020006100640003007000ea
:100a1000020060000900320061044400e0844c00e0
:100a20000988a500050032008b05e8006808e10090
:100a300002003a008904d1000884d300f20f20009c
:100a40000258e10005003d00c75ddd00f907b20076
:100a50008980750008007800000006000bf8270068
:100a60008b007800000005000004be00890007002c
:100a70000003be000405be000200be0085000700a2
:100a8000844f7500000006000200be006450e100c3
:100a9000050036006420e100020036000968a3006a
:100aa00001003a000800be000160a0004f06780077
:100ab0004f05be004f04be0000000600f0ff2f00ef
:100ac000f1ff2700f9ff3700889fbe008a9fbe0014
:100ad0008c1f7800e4ff0700ebff330003866c00f7
:100ae0006450e100240032006420e100270032005d
:100af0006150e100220032006120e100210032005b
:100b00008b854200eb07b1000134b800003ab80011
:100b10000804420089844a00013ab8000030b80055
:100b20008880400009014a000400330000004000b2
:100b300081804800020149008b05e900c909dd00f8
:100b4000830170000100320013002000c814de0091
:100b50004814dd004709de001200b200c808de00bc
:100b6000088470009aff070001f0a1000cf0a700b4
:100b700001f0a000cdff37006120e100cfff32007f
:100b80000801be000200be00f7ff37006150e1001f
:100b9000fcff3a00c9ff3700881f78000304780083
:100ba0000300e00007003d0060001000e080180036
:100bb00060011900e081190002003b0001f02d00e6
:100bc000030037000400070008f0a70001f0a000b0
:100bd0004f04780000000600889fbe008a9fbe0078
:100be000008270000402710004827100260032004d
:100bf0000004be000200be006011b8006b092000b6
:100c0000950220000182cf000a0039000541b100a1
:100c10000082cf00070039000541b1000982cf00f2
:100c2000040039000541b1000882cf0001003900fd
:100c30000541b10005425200120032000a003b009b
:100c400082817100610164008100d1000080d300c5
:100c50008984d3000884d3008b05e8000442e800af
:100c6000f7ff3a00070037000804440089844c006d
:100c700000004800818048008b05e9000442e9003b
:100c8000f9ff3a0052ff07004f05be004f04be00b7
:100c900000000600c70ade00f107b200f50fb2003f
:100ca00008003200e1cf4200020032000170a000d3
:100cb00024000500810f70000100320004080500c7
:100cc00044000500810f700002003a001400050086
:100cd0008502e9000000400081c04800fcff3b00a5
:100ce0000170a00024000500841426000400fa000e
:100cf000450a8300889fbe008a9fbe008c9fbe006d
:100d0000e08f52000b003a0024029800e4024200f7
:100d1000840a8b00450a8b00950a8b00a442900040
:100d20000504a00025429800e44290000504a000bc
:100d30006542980067044000a416260025002000a4
:100d40004244de00295526004244dd0084845400dc
:100d50005c552600110009008504d80004065600e1
:100d600085024400820a830085824200000f7800d9
:100d7000150798000003eb00e40544000806460050
:100d800002003700160020000d017800224290007a
:100d900061026200020032000a0037001509780083
:100da000920278002542900061026200fbff32004f
:100db00008024100848f520002003900e00f540005
:100dc0003e003d00920678000d00a100828f560083
:100dd000edff3e00e10f5300eaff3a001e027800eb
:100de000840f540002003600890f54000f003900b0
:100df000614ab900b0ff2f00010020006143b80034
:100e00000402500085825800840f5300858f5b00d8
:100e1000020035000b0578000500370011000900bd
:100e20000986d8008985b900010037001e059000a9
:100e30000a0078001bfe0700e10f400005003a00a1
:100e40000b0578000b00780016fe0700e10f40004c
:100e50002b003200940a8300000a7800940a830071
:100e600064034200a4429000860f5000020032004a
:100e70000504a000010037000504a10025429800e8
:100e800064055500841426000a0540000a0878000d
:100e90009a0a8b00040d7800950a83000003eb008a
:100ea000254290000404a000a44298002042900033
:100eb0000404a10024409800b3ff3700840a8b008b
:100ec000848f5200070036001403be008042eb00fe
:100ed000a60a8b00b70a8b00120a7800840a8300e6
:100ee0002542980022429000870a83000404a00053
:100ef0000709780024419800640041000100370090
:100f00000000eb004f06be004f05be004f04be00c0
:100f10000080fa00000006000000fa00e00f500018
:100f20000800320064005000840a8300840f5000df
:100f300001003100800a8b00204290000404a100cf
:100f4000244098000080fa00000006000000fa002b
:100f5000889fbe00000478008a9fbe00810478004c
:100f6000e08f540005003a00e00f540032003200d8
:100f700008007800e8ff070030003700e00f540059
:100f800004003a000900780057ff07008004780049
:100f90002a003700640254009405780068fa97002c
:100fa000610262000200320008007800daff0700e8
:100fb000090078004cff070080047800e08f54009f
:100fc0001e003200888f54001b00320069bd97005c
:100fd0008885550009055500c2ddde0042d5de00da
:100fe0000a0178008b0f5500010036000b017800d4
:100ff0004211dd0088007800090078001400070025
:10100000888f54000d0031004255dd000a854400f0
:10101000880f55000900360008045500a40a830013
:10102000b50a830042c4de004244dd000884440067
:10103000048cbe0001003700880478004f05be0014
:10104000090078004f04be000080fa00000006008e
:101050000000fa000002780002003700315a7800e0
:101060000201e900e00f5100fcff3a000080fa00a5
:10107000000006000000fa000002780002003700bd
:10108000015a78000201e900e00f5100fcff3a002c
:101090000080fa00000006000000fa00000278005c
:1010a0008042eb00b4cf1200fdff3a000080ea005e
:1010b0000080fa0000004200000006000c00fa0068
:1010c000889fbe00f4ff27000004780054079800b2
:1010d0008004eb00080f7800190798002807980093
:1010e000240c20006801570034079800ceb8970000
:1010f0000e007800b70007001e027800094a780049
:101100001e0014004f04be000080fa00000006001c
:10111000d4c6b3000800fa00889fbe000084fb001c
:101120008a9fbe00844f50002c00360089ed2500b8
:101130004b062000110009000b84d800720040000b
:101140004300dd0000804400810578006022b80083
:101150000600200007fe2300aa0020005001be0068
:101160004000be00450907000002be000203be00a9
:10117000110009008a85d800049fbe000697be00b2
:1011800080057800e9854500c35ddd008b8544005e
:101190003e00be002e01be003b02be002b03be007f
:1011a000360907000002be000203be00110009005c
:1011b0000a84d800049fbe000697be000104780090
:1011c0004344dd00888444003e00be002e01be0082
:1011d0003902be002903be001d003700ea4f50004f
:1011e00013003600aa00200089ed25001100090037
:1011f0000a84d80001057800690440004355dd00e9
:101200004344dd00088444008a8444006022b8001e
:101210000600200007fe23003800be002801be00a3
:10122000160907003902be002903be000800370076
:1012300084ed25004344dd00080442006022b8002c
:101240000600200007fe23003800be002801be0073
:101250000a0907004f05be004f04be000080fa00d7
:1012600000000600d4c6b3000800fa00889fbe0044
:101270008a9fbe00e04f500022003d000040ea007f
:101280000004fb00844f50000a0034004406200094
:10129000a9002000110009000404d8008aed2500ef
:1012a000110009008900d800e9004000c308dd00f2
:1012b00020003700ea4f50000f003400a400200047
:1012c000110009000404d80084ed250069004000e5
:1012d0004300dd0000004200430cdd000802420034
:1012e0005001be004000be005403be004402be00d8
:1012f000e2080700330037004344dd0084ed250099
:101300002d0037000004fb00844f50001f00340004
:1013100044062000a9002000110009000404d800a0
:101320008ae22500110009008900d800e900400088
:10133000c308dd00810045008b0920008a85450037
:101340003102be002103be003b00be002b01be00e7
:10135000ca0807000002be000203be001100090017
:101360000904d800049fbe000697be00010478005f
:101370004344dd00080545003e00be002e01be00ce
:101380003a02be002a03be00d9ff3700ea4f5000e0
:1013900007003400a4002000110009000404d80054
:1013a00084e22500690040004300dd00c9ff3700ea
:1013b0004344dd0084e22500080442003800be00fa
:1013c0002801be004f05be004f04be000080fa0099
:1013d000000006005a00fa00889fbe00111798000e
:1013e0008a9fbe00721798008c9fbe00000678008e
:1013f0006000b8006011b8002017980031179800fd
:1014000042179800531798008000eb00412798007e
:10141000420637001e11900054c2b3000201e800da
:1014200012179800844f500006003a00820378009b
:101430008002eb0000c3b30001c2b300b2c2b3002c
:10144000100037003c0290000404b2000400320097
:101450001c027800004a7800040ee80005003700fe
:101460000000fb008c00780037060700e10f400009
:101470002a063200ce2190008301e800432798001d
:101480002606370007027800d3c2b300374378003e
:10149000834f53000900320005003c00814f530088
:1014a00008003200824f53000c003a00070037005a
:1014b000804f530009003a00060037000530a000b5
:1014c000f0ff37000500a000eeff37000510a00078
:1014d000ecff37000520a000eaff3700e28362003e
:1014e000010032000500a100e88362000100320023
:1014f0000520a1008603fb000703b100e98f53001c
:101500000d003e000403780007002000ea3ab9000d
:10151000b603fb000703b1001600fb008483430001
:101520000003b10006027800e90f5000f7ff360013
:10153000072798000a0037008003eb000727980070
:10154000a7c2b300874f530005003a007e109000f9
:101550000402e800c0007800701798000127980086
:10156000e6c2b300944f13001b003a0005e0a00050
:1015700055279800a5c2b300d4cf12000400320052
:101580000001eb0084027800820378000b00370032
:10159000fe1190000402e800c3027800731798005f
:1015a000451f980004037800c5c6b3005e20900074
:1015b0000e003700ea3ab9008403430005027800c0
:1015c0003503fb000603b100e90f5300f9ff3600b5
:1015d000471f9800f3ff370005c0a0000003eb0091
:1015e00055279800461f9800eeff370086037800c5
:1015f0003742780007037800854f52002e003200f2
:101600005027980017179800c5c6b300854f5200a1
:1016100014003c00e8c25200854f52002400320002
:1016200009003c00ecc25200854f520033003200ea
:10163000ebc24200854f5200b3003200e04f52002f
:10164000bb053200d100370065c6b300854f52009c
:1016500020003200e3c24200854f5200cb003a0026
:101660001300370035c7b300854f52002a003200ff
:1016700007003c00e4c25200854f52001a003200bd
:101680008542e800854f5200c0003a001b00370039
:1016900055c7b300854f5200c0003200e3c242007c
:1016a000854f5200b9003a00044f78001700370008
:1016b000044f7800bd003700f003600004012000f3
:1016c00001003200040028000002720004007800cb
:1016d000c6ff3700de239000044f780007a0a0006b
:1016e00057279800b10037005e249000044f78001f
:1016f0000860a00058279800ac0037005e209000da
:10170000044f78000050a00050279800de20900081
:101710000170a000a40037007e119000044f7800f3
:10172000420278007217980004047800e00f52001b
:1017300001003a00a8fa2500080378000002eb0037
:10174000010037000402e800840243008041eb00fe
:1017500095cf1100fbff3a00840478004e1a9000e8
:10176000e00f520003003200890f520001003100e7
:10177000840478008006eb008e229000898f52004e
:1017800001003600898652005e23900068036300e2
:101790005627980036003a00481f9800591f9800b5
:1017a0006a1f98007b1f980004c2b300ce249000eb
:1017b00010003700bc0290000504b20004003200a3
:1017c0009c027800844a7800050ee8000700370084
:1017d000442f98008c007800000220005a05070072
:1017e0004e2a9000e10f4000010032008904e80019
:1017f0008d06e900e08f5600eeff3a004927980079
:101800008086eb004e1c9000de1c90006e1d900048
:10181000fe1d9000160037003c0290000404b20048
:1018200009003200080278001c037800b4427800f6
:10183000054b780004047800060ee800e0cf520063
:1018400008003a000a003700080278008c0078008f
:101850003400fb00040478003b050700e10f400062
:1018600003003200ce2090008100e800412798005c
:10187000090278008404e900e00f5200e6ff3a0014
:101880005e219000e00f5100240532005827980097
:10189000692798007a2798000b2f980004c2b3009c
:1018a000ce24900010003700bc0290000504b20066
:1018b000040032009c027800844a7800050ee8009b
:1018c00007003700442f98008c00780000022000a9
:1018d0001d0507004e2a9000e10f40000100320074
:1018e0008904e8008d06e900e08f5600eeff3a001b
:1018f000492798005e249000ee2490007e259000f9
:101900008e2d900005053700fe1090005e2390009c
:1019100041027800f002630071179800040078001b
:10192000cf80de000101780082017800001f98005e
:10193000111f9800221f9800331f98004800de00f6
:10194000480add0000007200004f7800e08f52006e
:1019500009003200e04f500007003200e14f400024
:10196000050032008e7390001047980027479800ba
:1019700029002000030037000e709000190020009d
:10198000104798000e04e80074ff3700044f7800f9
:101990000e0478001900200070ff3700044f780013
:1019a000de209000010cb300512798000470200045
:1019b0005e219000040261009102320004002100c7
:1019c000040261000200320063002000431f9800ff
:1019d000de22900070826200090032007e129000c8
:1019e0004401be004400be0074179800001f980018
:1019f000111f9800221f9800331f98000a0037001b
:101a0000fe1290004500be0075179800830607007f
:101a10000002be000203be00041f9800151f9800bc
:101a2000261f9800371f98006022b8006033b80066
:101a30000e1890009e1890002e199000be1990006c
:101a4000c8050700e00f50000c003d000e18900084
:101a50009e1890002e199000be19900003f0a2006d
:101a6000001f9800111f9800221f9800331f980034
:101a7000de2090003100b300512798000002eb00f7
:101a80000e1890009e1890002e199000be1990001c
:101a9000240798006022b8006033b80015060700dc
:101aa000e00f500033003200640247000e1890002f
:101ab0009e1890002e199000be199000d2060700c3
:101ac0002e009000a40020000000e900e300b9000f
:101ad000110009000400d80020079800e00f500012
:101ae00002003d000000e900200798002e0490004d
:101af0000840ea00dbfd07000e1a90009e1a9000d5
:101b00002e1b9000be1b9000dc0607000002be00ea
:101b10000203be0024179800351798004617980056
:101b2000571798006022b8000600200007ff230026
:101b30008c050700e00f500002003d000804e9009a
:101b40000b0037006022b800060020004702240086
:101b50002e109000be1090004e119000de119000eb
:101b600085050700e00f5000020035000804e8007a
:101b700028079800ce1a9000f88f52000f003c0002
:101b80000540780062fd07000002be000203be00af
:101b90000e1890009e1890002e199000be1990000b
:101ba000f30407000002be000203be00041f9800f9
:101bb000151f9800261f9800371f98002e049000cc
:101bc000e90f540015003c006022b8006033b800f3
:101bd0000e1890009e1890002e199000be199000cb
:101be000c4050700e00f5000320032000e189000cc
:101bf0009e1890002e199000be199000260607002e
:101c0000e00f5000e08f5800e00f5900e08f5900be
:101c100028003a00e10f54002600340004002000a0
:101c200005002e00b6e02200170124002e109000bf
:101c3000be1090004e119000de1190004905070083
:101c4000e00f500002003d00730454000100370013
:101c500072045400280798004e40900081fd070050
:101c60000002be000203be000e1890009e189000f5
:101c70002e199000be19900024179800351798006f
:101c800046179800571798004005070002060700fe
:101c90000205be000004be006000b8006011b8007c
:101ca000001f9800111f9800221f9800331f9800f2
:101cb000170037000e1890009e1890002e19900003
:101cc000be199000f40507000205be000004be0026
:101cd000220607000002be000203be000e1890009c
:101ce0009e1890002e199000be199000d80607008b
:101cf0000002be000203be00041f9800151f9800da
:101d0000261f9800371f98000002eb002407980058
:101d1000a1fb250010c0b300080037003102be004f
:101d20003103be000440e10005c8e10006d0e10037
:101d300007d8e100030039000040e800f44f5000ec
:101d4000f6ff3a008e229000004f78002e0290009d
:101d50004e1b9000048252000000fb00060252005d
:101d60000000520000279800e00f530002003200ec
:101d70000000e90000279800de23900063826300e2
:101d8000030032000e2090000000e90000279800b8
:101d9000de209000648260005100320062826000a8
:101da000e1826000e00f5200170032003c02900018
:101db0000404b200080032001c037800b4c2b3006f
:101dc000e08f52000100320004c2e800044b7800aa
:101dd000060ee80008003700b0022000e08f520035
:101de000010032000080e8008c007800d603070074
:101df000e10f4000300032004e2190000201e80067
:101e0000422798002c003700e08f52002a00320051
:101e10003c0290000404b200050032009c027800ed
:101e200004c2b300844a7800050ee80005003700bc
:101e30008c00780000022000c3030700e10f40007f
:101e40001d003200ce2190008301e8004327980056
:101e5000190037003c0090000004b200040032007a
:101e60001c0078000d487800000ee8000d003700d7
:101e7000442f9800352f9800162f9800272f980090
:101e80008c00780000032000af0307004e2a90006a
:101e9000be2a90001e2b9000ae2b9000e10f400058
:101ea000030032004e2490000804e8004827980000
:101eb0008904e900040037000802be000a03be00de
:101ec0008e2490000dc3b300e08f5400e1ff3c006e
:101ed000092798000605be000404be0080003700f4
:101ee0005e2090006802600023003a00190037006d
:101ef0003c0090000004b200040032001c00780096
:101f00000d487800000ee8000d003700442f9800bf
:101f1000352f9800162f9800272f98008c007800f6
:101f200000022000880307004e2a9000be2a90007d
:101f30001e2b9000ae2b9000e10f400003003200fa
:101f4000ce2090008100e800412798008904e90034
:101f5000040037000802be000a03be008e24900071
:101f60000dc2b300e08f5400e1ff3c000927980048
:101f70000605be000404be005e21900062026100fe
:101f8000e1026100e00f5200170032003c029000b5
:101f90000404b200080032001c037800b4c2b3008d
:101fa000e08f52000100320004c2e800044b7800c8
:101fb000060ee80008003700b0022000e08f520053
:101fc000010032000080e8008c0078005e0307000a
:101fd000e10f400042003200ce2190008301e80072
:101fe000432798003e003700e08f52003c0032004b
:101ff0003c0290000404b200050032009c0278000c
:1020000004c2b300844a7800050ee80005003700da
:102010008c007800000220004b030700e10f400015
:102020002f0032004e2290000402e800442798005e
:102030002b0037003c0290008502fb000404b20034
:102040001100320026fb2500c32add008502430073
:102050009c0678005503be004502be000800be0085
:102060000a01be00b1060700a40020000500200000
:102070006033b800b606070007c3b300874e4000c0
:102080000d0ee8001300370020fb2500c32add00f9
:10209000850240000800be000a01be005503be00d4
:1020a0004502be00a1060700a40020000500200094
:1020b0006033b800a60607008c00780004032000f7
:1020c00000024200040078001f030700e10f4000f7
:1020d00003003200ce2090008100e80041279800e4
:1020e0001e4278008442e900054f7800e04f52001c
:1020f000d0ff3a00110037003c0290000404b20007
:10210000040032001c027800084a7800040ee8003f
:10211000050037008c007800000320000a03070048
:10212000e10f4000010032008904e8002e02900017
:102130000402e9002407980002003700ce24900032
:1021400008c3b3002e029000e00f5200eaff3c00eb
:10215000492798004e199000f20f510003003400f7
:1021600024c1b300044f7800020037008e7990003c
:10217000034f78004e1b90009e4278000502fb0042
:1021800004025300441f9800e0cf520010003200b8
:102190003c0290000404b200050032001c027800ea
:1021a000e5c2b300054a7800040ee80005003700d8
:1021b0008c007800e0022000e3020700e10f4000fd
:1021c00003003200ce2390008703e80047279800e1
:1021d0001e40780023fc07000002be000203be0080
:1021e0000e1890009e1890002e199000be199000b5
:1021f00022050700a8040700340037003c029000c5
:102200008502fb000404b2001100320020fb25000f
:10221000c32add00850240009c0678005503be00fd
:102220004502be000800be000a01be003f060700ce
:10223000a4002000050020006033b8004406070019
:1022400004c3b300844e40000d0ee80013003700b5
:1022500026fb2500c32add00850243000800be00de
:102260000a01be005503be004502be002f0607004e
:10227000a4002000050020006033b80034060700e9
:102280008c00780004032000000242000400780063
:10229000ad020700e10f400003003200ce239000a2
:1022a0008703e8004727980020fb25001e02fb005b
:1022b0004322dd00040240000800be000a01be0007
:1022c0005403be004402be00210607001e427800ef
:1022d0000205be000004be008442e900054f7800fc
:1022e000e04f5200c5ff3a00190037003c00900053
:1022f0000004b200040032001c0078000d48780091
:10230000000ee8000d003700442f9800352f98008c
:10231000162f9800272f98008c00780000032000cb
:10232000890207004e2a9000be2a90001e2b9000c2
:10233000ae2b9000e10f400003003200ce20900051
:102340008100e800412798008904e9000400370073
:10235000ce1c90000dc3b3000203be000002be00fd
:10236000e08f5400e1ff3a000605be000404be0001
:102370005e21900068026100680232008e219000a8
:10238000e08f5100650234000802be000a03be005f
:102390000dc2b300830478003c0090000004b2003a
:1023a000040032001c0078000d487800000ee800a0
:1023b0000d003700442f9800352f9800162f9800f5
:1023c000272f98008c007800000220005e02070092
:1023d0004e2a9000be2a90001e2b9000ae2b90003b
:1023e000e10f4000030032004e2490000804e80092
:1023f000482798008904e900e7ff3a0045023700c2
:10240000de229000050cb2002e003a005e20900003
:10241000e00f500005003d00fe1090004105be0099
:102420004104be0071179800170037005e2190002c
:10243000700261000e0032007e1390004602be0062
:10244000140f9800250f9800761798001602900038
:102450004fa2de00340f9800440f98001e0c90002d
:10246000ae0c90003e0d9000ce0d9000060037009f
:102470007e1090004004780070179800cfc4de00f2
:10248000090578008a057800e00f5400e08f5c00b1
:10249000e00f5d00e08f5d0027003d00de20900032
:1024a0006022b8006033b8003100b3000804520065
:1024b00089845a000a055b008b855b0051279800d0
:1024c0001d0037005e219000e00f510005003d0027
:1024d000fe1190004305be004304be007317980030
:1024e000150037005e239000f00263000c003200fc
:1024f0007e1190004200be007407980050079800bb
:1025000061079800040f9800721798005e0490000d
:10251000ee0490007e0590008e0d900006003700be
:102520007e1290004404780074179800090020007f
:102530000a0020000b002000ce1a9000e08f52000d
:1025400009003a0016002000461f9800e00f5400d2
:10255000e08f5c00e00f5d00e08f5d000200320064
:102560008003eb00471f98005e20900004042000c9
:10257000000cb200001f9800840f50002c003200a5
:1025800003003c00e00f5000080032003c00370020
:10259000040820008e189000848f50001000320034
:1025a000040c2000848f500035003a00a5fb250064
:1025b00014c0b3003500be003501be000040e1008c
:1025c00001c8e10002d0e10003d8e1002b0039008e
:1025d0000442e800f44f5200f6ff3a0027003700ab
:1025e00014c0b30000012000010020006011b800f9
:1025f0000040e10001c8e10002d0e10003d8e100a1
:102600001e003900450020000000d0008180d2006b
:102610000281d2008381d2008502e900faff3a00ec
:102620000442e800f04f5200f1ff3a001300370077
:1026300014c0b30080002000010020006011b80029
:102640000040e10001c8e10002d0e10003d8e10050
:102650000a003900360020000000d0008180d2003e
:102660000281d2008381d2000603e900faff3a001a
:102670000442e800f54f5200f1ff3a00044f7800a1
:102680001e02fb00ce1b9000870f520002003d008f
:10269000074f7800040037004e189000840f500058
:1026a00001003d00441f98008e209000e08f5000f4
:1026b000050032005e2190006302610002003200da
:1026c0008100e9000127980004002400de21900029
:1026d00004826100090032000e229000ce1a9000a0
:1026e000850f5200030034000502520004279800b1
:1026f000020037000003eb00062798008003eb0080
:102700001e02fb00671798000e209000840f5000f7
:10271000020034000402500064179800de2090008c
:102720006482600051003200e282600061826000d9
:10273000e08f520017003200bc0290000504b20086
:10274000080032001c037800b5c2b300e00f52004d
:102750000100320085c2e800054b7800060ee80053
:1027600008003700b0022000e00f520001003200e4
:102770000080e8008c00780073010700e10f400042
:10278000160032004e2190000201e8004227980016
:1027900012003700e00f5200100032003c0290009f
:1027a0000404b200050032001c02780005c2b30028
:1027b000054a7800040ee800050037008c00780018
:1027c0000002200060010700e10f4000030032001a
:1027d000ce2190008301e800432798006e129000fc
:1027e000e00f5200750032000802be000a03be006e
:1027f000ee1490000dc3b3003c0090000004b20042
:10280000040032001c0078000d487800000ee8003b
:102810000d003700442f9800352f9800162f980090
:10282000272f98008c007800000320004601070045
:102830004e2a9000be2a90001e2b9000ae2b9000d6
:10284000e10f4000030032004e2490000804e8002d
:10285000482798008904e900e7ff3a0069179800c3
:102860000605be000404be00540037006e10900040
:10287000e00f500023003200de20900068826000ec
:1028800020003a000802be000a03be000dc2b300d9
:10289000800478003c0090000004b2000400320084
:1028a0001c0078000d487800000ee8000d0037008d
:1028b000442f9800352f9800162f9800272f980046
:1028c0008c007800000220001f0107004e2a9000b3
:1028d000be2a90001e2b9000ae2b9000e10f40000e
:1028e000030032004e2190000201e80042279800c8
:1028f0008904e900e7ff3a00691798000605be0061
:102900000404be00de219000e28261006182610069
:10291000e08f520017003200bc0290000504b200a4
:10292000080032001c037800b5c2b300e00f52006b
:102930000100320085c2e800054b7800060ee80071
:1029400008003700b0022000e00f52000100320002
:102950000080e8008c007800fb000700e10f4000d9
:10296000160032004e2290000402e800442798002e
:1029700012003700e00f5200100032003c029000bd
:102980000404b200050032001c02780005c2b30046
:10299000054a7800040ee800050037008c00780036
:1029a00000022000e8000700e10f400003003200b1
:1029b000ce2290008502e800452798004e1b90002b
:1029c00024fb25008602e900de239000c32add00f7
:1029d000f08363005e209000848642000002b20013
:1029e0004707980030079800082798001927980093
:1029f0002a2798003b2798009c003700ce1a9000a9
:102a00000e1b90008502e90007042000451f980076
:102a1000870f53007100320003003c00e00f5300a9
:102a2000080032007e003700040820000e1c9000d1
:102a3000840f540053003200040c2000840f540013
:102a400077003a005e209000e00f50001e003d002d
:102a50003d04be002d05be000e2090009e2090007b
:102a60002e219000be2190000802be000a03be0085
:102a70002e0407000802be000a03be00004f7800c3
:102a80000000fb00cf80de000101780082017800a9
:102a9000970407000e2290009e2290002e239000a3
:102aa000be2390000002520081825a0002035b00a4
:102ab00083835b0004279800152798002627980039
:102ac000372798002c003700ce029000e08f52008c
:102ad000210032000e2290009e2290003d04be0094
:102ae0002d05be000400be000801be00442f980062
:102af000352f9800580307000801be00004f7800ea
:102b00000004eb000000fb00cf80de006203070042
:102b10004e2a9000be2a9000081798000003520029
:102b200081835a00560f9800670f98008003eb00ce
:102b3000770f98005e089000ee0890007e099000e4
:102b40008e119000002798001127980022279800e6
:102b500033279800080037001d0278000e219000ee
:102b6000110009000481d800a40020001100090010
:102b70000480d800014f780003c3b3001ecf41008a
:102b80002700370094f92500be029000e08f520024
:102b90000100320084f825004e1b90000e209000aa
:102ba0009e2090002e219000be219000c232dd00b8
:102bb0008502e900050033008301d1000281d300c2
:102bc0008180d3000080d300f9ff37006f006000e0
:102bd00000004200104f780011003700ce1b90001b
:102be0000e2090009e2090002e219000be2190008b
:102bf000e33ab900040478000804e9000500330052
:102c00008301d1000281d3008180d3000080d300f2
:102c1000f9ff37006742600000c3b300004f420075
:102c20003c0290000404b200070032009c027800cd
:102c30001e427800844a7800050ee800e04f5200fa
:102c400006003a00080037001e00fb008c007800e8
:102c50003d000700e10f400003003200ce2090004d
:102c60008100e80041279800e88656004e19900040
:102c7000e00f510061ff3a00de2190000e24900029
:102c80009e2490002e259000be2590006882610051
:102c9000220032006e129000e00f52001f0034003c
:102ca0000802be000a03be00ee1490000dc2b3007d
:102cb0003c0090000004b200040032001c007800c8
:102cc0000d487800000ee8000d003700442f9800f2
:102cd000352f9800162f9800272f98008c00780029
:102ce00000022000180007004e2a9000be2a900023
:102cf0001e2b9000ae2b9000e10f4000030032002d
:102d00004e2490000804e800482798008904e90050
:102d1000e7ff3a000605be000404be009e109000c6
:102d200011407800004f7800e04f5000b9f93a00a8
:102d30004f06be004e2090004f05be004f04be005f
:102d40000080fa00000006000000fa00889fbe0024
:102d5000010478008084eb0038029000e2026200f7
:102d60003b00320004037800980290000620b20075
:102d700002003a00e08f520035003a000490a000b3
:102d80008004780034049800f90fb200e08f5200fc
:102d900002003a00a8029000050c7800ea8f540067
:102da00005003a000408b20003003a0088007800e9
:102db000d0002000e4ff070018029000d802900025
:102dc000850f52000b0032000402e80015c0b3006a
:102dd0001404980018027800094a7800040ce800ee
:102de00084152600054a7800ea8f540018003a003e
:102df00005003700094078008800780018000700b7
:102e00008004780012003700380290000410b200ed
:102e10000f00320018019000a800900048009000b8
:102e2000f0f5070018029000840f500004003200f3
:102e3000380290000403b300340498008084eb004f
:102e40000002eb001404980028029000040c7800a3
:102e5000090078004f04be000080fa000000060060
:102e60000200fa00889fbe0001047800004f78003d
:102e700038029000840278000504b200020032009b
:102e80000000fb0033003700e202620005003a0058
:102e90000403b30015049800340498000080eb008c
:102ea0002c003700d8049000e08f540006003a0050
:102eb000120020008e00780048009000c9f507003d
:102ec0001904980022003700a8029000e08f5200f9
:102ed00008003a00b51526000430a000250498002b
:102ee000050c780034049800250020005504980053
:102ef0001504980018019000a80090004800900068
:102f0000b8f50700280290008082eb0015049800b5
:102f10001e4a7800040ce800a4c0b3009e4f1200c3
:102f20000b003a00380290000410b2000800320092
:102f300018019000a800900048009000a9f5070033
:102f40000002eb001404980028029000040c7800a2
:102f50001e00fb004f04be000080fa0000000600c7
:102f60000000fa0000c0da000080fa00000006004d
:102f70002800fa00889fbe008a9fbe008c9fbe007a
:102f800007067800878669000c003b000304780080
:102f90008704780008f0a10009f0a100840f500018
:102fa000858f5800860f5900890f5c00030033009d
:102fb0000cf0a20001003a000cf0a100fe00070096
:102fc0006400e1005f003200780147006408e1001e
:102fd000610032006c014700748557003200be006a
:102fe0001201be003a04be001a05be001e03900086
:102ff000be0a90008503530006003d000004fd005a
:103000008104fd000205fd008305fd008703ea0041
:10301000050378000df8a3000400320060041400da
:10302000e0841c0060051d00e0851d006022b800e2
:103030007d0320000d38e1008006eb000b00390015
:103040004433dd00f300b200830173003900370020
:10305000848272000d027800e10664008b85d10045
:103060000a85d3008984d3000884d3008703e9004c
:10307000f7ff3b0008004000898048000a01490032
:103080008b81490004003b0060001000e0801800c4
:1030900060011900e08119000358a3000900320003
:1030a0008d82720084827200610260008301d1000f
:1030b0000281d3008180d3000080d3000603e800a2
:1030c0001b0037000348a30017003a000600e00089
:1030d000170034000603e9000d00a30000004800bb
:1030e0008180480002014900838149000348a30010
:1030f0000f003a000600e000090034000603e90072
:10310000000040008180480002014900838149009d
:1031100001003a000003eb000348a300f5ff320072
:103120006022b8000200370084827200618266006b
:103130007500070003f0a1000cf0a70003f0a00049
:10314000b1003700640147006408e10002003a0062
:103150000df8a300a9003a003200be001201be0023
:10316000a90037008f1fd1000c0307008f87e900eb
:103170000000e00000000600809feb00070307004e
:103180008f87e9000000e000000006002800fa0038
:10319000889fbe008a9fbe008c9fbe0003866b0086
:1031a000850007006400e100440032006408e1008b
:1031b0004a0032006100e100460032006108e1008f
:1031c00049003200ec0647006000b8003d02be0036
:1031d0003d03be00f48657006011b8003d04be00f8
:1031e0003d05be007d0320000b0037000000a0005d
:1031f0008d06e900130032000402420085824a0075
:1032000006034b0087834b0000004000818048008c
:1032100002014900838149000802520089825a0054
:103220000a035b008b835b00f0ff3b000802420057
:1032300089824a000a034b008b834b008d06e9000c
:10324000edff3a008482720086827200f707b200b6
:103250008782720001003200150020001e049000d9
:103260003e0b900006035400e63fb0000368a30045
:10327000070032000000a7000500a0008301d10074
:103280000281d3008180d3000080d3000603e800d0
:103290008301d1000281d3008180d3000080d3005c
:1032a0000002eb000482d2001700070003f0a10027
:1032b0000cf0a70003f0a0005300370064024700a1
:1032c0006408e1004d0032003400be003401be004d
:1032d000f6ff37006108e100480032006011b800d5
:1032e0006000b800f1ff370003ff27000200200054
:1032f000fbff3700801feb00a80207008f87e90063
:103300000000e00000000600180020005700200028
:10331000080453000d003d000600200097fc2f001c
:103320000740e1001e0034008482720061026000e8
:103330008301d1000281d3008180d3000080d300bb
:103340000804e800f8ff3a0047002000610460002c
:1033500005047400040464000d00320061004000a4
:10336000e080480060014900e081490003b8a50001
:10337000070032000603e8006538e10004003a0067
:103380008301d1000281d3008180d3000080d3006b
:10339000f87f20000830e1000300350008037800c2
:1033a0006000b8006011b8004433dd00f300b200e3
:1033b0008301730000000600680447000294be0009
:1033c0000094be00fc0447008694be008494be00b6
:1033d00009007800ba02070008007800b802070068
:1033e00099007800814f70000b003b000800be0080
:1033f000930207004f00b10003003700f3ff2700de
:10340000f2ff2f006110b9004f06be004f05be004d
:103410004f04be000080fa0000000600810378001f
:103420001cf607000001be006000b8000478a3008d
:1034300013003a006220e10015003e000d00390043
:103440008301d1000281d3008180d3008301d100a8
:103450000281d3008180d3008301d1000281d30097
:103460008180d3000538b000c42add00f300b2002b
:103470008381720007f0a70003f0a000000006009f
:10348000f3ff2700f2ff2f006110b900fbff3700a8
:1034900003ff2700f7ff37001400fa00889fbe00e3
:1034a0008a9fbe008c9fbe000004be000205be00c5
:1034b000680047000a90be000890be008002070026
:1034c0000070a7000bf0a1000bf8a30020003a0049
:1034d0009e0990000e099000fe0090006e00900082
:1034e0009e0290003443200084825200c6ff3200c6
:1034f0000a003c00b4fc2f000428e1001400340052
:103500008301d1000281d3008180d3000080d300e9
:103510008502e800faff3a00bbff3700b400200044
:103520000428e10007003c000000400081804800c2
:1035300002014900838149008502e900faff3a004f
:10354000b1ff37000300280002002000010037000f
:103550006011b8006000b800abff3700889fbe0064
:1035600000827000040271000482710024003200a5
:1035700036432000c50020008383cf000a003900b5
:103580000541b1008283cf00070039000541b10039
:103590008183cf00040039000541b1008083cf0052
:1035a000010039000541b10085c353006022b80015
:1035b000120032000a003b00848272006102600047
:1035c0008301d1000281d3008180d3000080d30029
:1035d0000603e8008743e800f7ff3a0007003700da
:1035e00000004000818048000201490083814900b9
:1035f0000603e9008743e900f9ff3a0042ff0700ac
:103600004f04be00000006001400fa00889fbe00b0
:103610008a9fbe008c9fbe00040678000004be0096
:103620000205be00680047000a90be000890be0078
:10363000230207006200e1000800be000a01be008c
:10364000040020000b003a001e029000e43fb1008d
:103650006e009000fe0090000e0990009e09900000
:10366000f300b20005fe2300858171000bf0a70076
:1036700003f0a000040e780063ff37002800fa0072
:10368000889fbe008a9fbe008c9fbe0003866b0091
:1036900049ff07000028a30064003a000128a300a6
:1036a00067003a000008a30062003a000108a30086
:1036b00065003a001e009000be08900081064000a0
:1036c000ed3fb100f4805700ee019000111ab800f0
:1036d0008e099000311bb8009e099000311cb80083
:1036e000511db800f485570046000700fe01900008
:1036f0003a0007008b85e8003e0007008e09900025
:1037000040000700ee019000340007008b85e800c0
:10371000380007008e099000400007009e099000c5
:103720001b18b800890440000a854800fe0190007b
:10373000340007008b85e80038000700ee01900098
:10374000300007008e0990001b18b8008904400063
:103750000a8548000a98a30008003a0004024200c3
:1037600085824a0006034b0087834b0008044c0007
:1037700089844c000a054d008d06e90084827200a0
:10378000850273004c3add008502720001003200b0
:1037900015002000443ade001400b2004538de0077
:1037a000cb45dd000b007000c540de00cb4ddd00d9
:1037b0008b8070004549de00cb55dd000b017100a8
:1037c000c551de000d037800cffe070003f0a10015
:1037d0000cf0a70003f0a0000bff37001b18b80087
:1037e0008502400006834800e0834b0060044c00e3
:1037f000070037001b18b800060340008783480005
:10380000faff37001b18b8008703400008844800ff
:10381000e0844c0060054d00000006001b18b80055
:103820000804400089844800faff37000108a3001b
:10383000f2fe3a005800be005801be00e3ff370018
:103840000008a300edfe3a0009047800f9ff3700f4
:1038500007f0a200c6fd37006022b8000602200073
:103860000000d0008180d2000482d2008582d20084
:103870000000a0000202520083825a0003003100bf
:103880000202420083824a000000a1000603e90010
:10389000f3ff3a0000000600020ab900001bb9005d
:1038a0000200b800810042008100430000000600d1
:1038b0000000fa00889fbe008a9fbe003004be0050
:1038c0002005be000404440085844c0006054d001c
:1038d00087854d000898be000a90be000440e100b4
:1038e00005c8e10006d0e10007d8e1000200310080
:1038f000680040001008e8004f05be004f04be00fd
:103900000080fa00000006001000fa00889fbe0048
:103910008a9fbe000605be000404be003002be0041
:103920002003be00049fbe000697be0011002000c9
:103930000802520089825a000a035b008b835b00f5
:103940004407980055079800660798007707980085
:103950000498be000698be003e02be002e03be00c4
:103960000820e10009a8e1000ab0e1000bb8e1007d
:10397000010039008000eb004f05be0010881000e8
:103980004f04be000080fa00000006001400fa0098
:10399000889fbe005b0007008a9fbe008c9fbe0010
:1039a0000006eb004c0798003c0798002c07980095
:1039b0001c0798000c0f78000605be000404be002a
:1039c0000d0420004e039000be02900086034300c9
:1039d0002e029000e00f530003003d002a00070074
:1039e000b3ff07000200370027000700c6ff0700eb
:1039f000ce029000150f9800e08f520009003500ac
:103a00004500070014002000050020006033b800c6
:103a100000007200818072000201730083817300d4
:103a2000380007000c06e8008d0f5600e5ff3a004d
:103a30001e0a9000e00f520004003d000802be0084
:103a40000a03be000e00780099ff07004eba9700e7
:103a5000e00f520006003a003e04be002e05be00f4
:103a600058079800690798007a0798000b0f98008c
:103a70004f06be00280007004f05be004f04be00e1
:103a80000080fa00000006004f2bde002200070035
:103a900086837300858242004f23de00470798002b
:103aa0008682720004024200350798009e02900050
:103ab0004f2bde0085824200060272002407980028
:103ac0001e0278004f23de0004024200868272004c
:103ad000150798004f18de00000f72000e00070057
:103ae0000802be000a03be000000400081804800ba
:103af0000201490083814900020007000e0078009e
:103b000000000600500798006107980072079800af
:103b1000030f9800000006005e009000ee00900089
:103b20007e0190008e099000000006000000fa005f
:103b3000881f780018002000881f780093ff070076
:103b40008f87e9004f0478000080fa00000006002b
:103b50000000fa00801feb008cff07008f87e90050
:103b60000080fa00000006000000fa00889fbe00f6
:103b70008a9fbe00e00f5000e08f5800e00f590010
:103b8000e08f59000c003d006044b8006055b8005b
:103b90000000540081805c0002015d0083815d00b3
:103ba000180020001600070008003d00190007005b
:103bb0000004eb00050037000004eb0010000700d4
:103bc00002003d001300070018002000d7ff070087
:103bd000e00f5400060032006022b8006033b800e5
:103be0000000520081805a0002015b0083815b006b
:103bf0004f05be004f04be000080fa000000060022
:103c0000e00f5200e08f5a00e00f5b00e08f5b0096
:103c1000000006006044b8006055b800040254007b
:103c200085825c0006035d0087835d00000006005e
:103c30000000fa00889fbe008a9fbe008c1f78009b
:103c4000e00f5000e08f5800e00f5900e08f59005e
:103c50000d003d006044b8006055b8001c00200015
:103c60000000540081805c0002015d0083815d00e2
:103c70000820e10009a8e1000ab0e1000bb8e1006a
:103c80000d003d00080037000006eb00e00f520079
:103c9000e08f5a00e00f5b00e08f5b0006003d0004
:103ca0006044b8006055b8000402540085825c008e
:103cb00006035d0087835d00a5ff0700e00f560047
:103cc000060032006022b8006033b80000005200e5
:103cd00081805a0002015b0083815b004f067800ff
:103ce0004f05be004f04be000080fa000000060031
:103cf0000000fa00889fbe008a9fbe008c1f7800db
:103d00000006eb00e00f5000e08f5800e00f590074
:103d1000e08f590007003d006044b8006055b800ce
:103d20001c0020000000540081805c0002015d0046
:103d300083815d00e00f5200e08f5a00e00f5b00ce
:103d4000e08f5b0007003d006044b8006055b8009c
:103d50000c00a2000402540085825c0006035d0092
:103d600087835d007d000700e00f560006003200eb
:103d70006022b8006033b8000000520081805a0011
:103d800002015b0083815b004f0678004f05be0097
:103d90004f04be000080fa0000000600889fbe00ad
:103da0008a9fbe008c9fbe000404be000605be00b4
:103db000809fbe00829fbe002f000700040678008f
:103dc0000800be000a01be002b0007008406780030
:103dd0004f03be004f02be008d4f76007fb09700ac
:103de00013003300f0ff2f008b8f6b0006003b00a9
:103df0000d0666000c00a7000a00370007f0a600b9
:103e0000100020000a003700880f5200898f5a00e6
:103e10008a0f5b008b8f5b000300390010002000cd
:103e200001003e000000200007f0a7000000ea00ab
:103e30004f06be004f05be004f04be000000060046
:103e4000e48240001078a3000700320064024000c2
:103e50001178a3003400be001401be00040032003b
:103e60000330a700000006003500be001501be00ab
:103e70000330a0000000060005ff27000582610056
:103e8000070032000428e100010032002400050090
:103e90000600070001003a00440005000408050080
:103ea00002000700f9ff3a00140005006f8261006c
:103eb0008102700085027100850272000000060018
:103ec000800078005002be005003be004439de007e
:103ed000f700b200f37f2000030161000900320007
:103ee0000218e10016003a00850172008301730098
:103ef000838173000008200015003a004000200074
:103f00001300370085017200830173008381730001
:103f100005003a0004a8be0006a8be00100020005c
:103f20000b0037000201e9000402420085824a00ca
:103f300006034b0087834b000748a300f9ff3200bc
:103f40000740a00004a8be0006a8be002000200074
:103f5000800098009200980000000600889fbe0034
:103f60008a9fbe008c9fbe000404b8000506b800fe
:103f70008904460060854e000606b8000a05460022
:103f8000e0854e000706b8008b054600040eb80019
:103f9000890446000a854e00e0854d00050eb800f4
:103fa0000a0546008b854e00060eb8008b054600bc
:103fb0000416b8000a0546008b854e000516b800a9
:103fc0008b054600041eb8008b0546000800be00a5
:103fd0000a01be004f06be004f05be004f04be00e2
:043fe00000000600d7
:020000040000fa
:103fe4001111000022220000333300004444000079
:103ff4005555000066660000777700008888000049
:1040040099990000aaaa0000bbbb0000cccc000018
:10401400dddd0000eeee0000cecd0000acab000014
:10402400546500006d700000005600006f6c0000c5
:10403400747300003a200000252e0000336600004f
:1040440000540000656d0000703a00002025000057
:104054002e31000066000000494400004c45000079
:104064000025000073090000092500006309000011
:10407400257500000925000075090000257500005c
:104084000d0a0000000000004d6f00006e69000082
:10409400746f000072000000257300003a250000d0
:1040a4006400000048650000617000003a250000cb
:1040b400640000004343000032350000303000004b
:1040c40000000000546d00007220000053760000d0
:1040d400630000004c4300004400000004000000a2
:0440e4001e4e00006c
:020000040000fa
:1040e8001600fa0030079800410798005207980018
:1040f8006307980074079800050f9800160f98003a
:10410800270f98009e0890005e009000e5050700c4
:1041180000027800140798001e029000e00f520079
:10412800570032001e029000c40a9000250798002c
:104138001e029000c40a90005e0290000402e9008a
:1041480004024200848242001e0290001512980068
:104158005e029000ae0990007e019000ce009000b3
:104168001e009000240507006e019000be0090001c
:104178002e009000cc5402000000000000027800dd
:10418800840278001e029000050a78000e0a90004a
:10419800e00f5200030032000e0a90009e029000c9
:1041a800050a7800ce55020000000000a40583002f
:1041b8000402e800a4058b0094028300e00f52007b
:1041c80007003a001e02900094028b00a4058300a9
:1041d800e10f52000c003a00460507000a003700bc
:1041e800d4058300e00f520007003a0094028300d0
:1041f800b40a90007e029000848f520002003e00b4
:104208009e02900095028b00140683000402e800c9
:1042180014068b00150683001e02900025129800d4
:104228001e029000b40a9000c4058300848f5200d7
:10423800030036001e029000340a9000c4058b006b
:104248001e0290008482e8001e029000340a90004a
:10425800ea23b900440526000402430085007800db
:1042680004007800d257020000000000140020006b
:10427800040f7800e2550200000000000200370039
:104288000082eb00040f78001e027800e10f520054
:104298000b003a00d4058300e00f520008003200fa
:1042a80094028300b40a90007e029000848f52002a
:1042b80003003100f859020000000000000000006f
:1042c8001e027800040078000080fa000000060052
:1042d8000400fa0010079800ce5502000000000004
:1042e8001e029000e00f520002003a009402830080
:1042f800010037001e029000040f78001e82e800bb
:104308000400780072580200000000001e027800c5
:10431800240a9000e00f5200050032009e02780047
:104328006c8242000400780072580200000000000d
:104338001e82e80084007800e0092600d2570200b7
:1043480000000000440583000402e80044058b00d7
:10435800140683000402e80014068b00e2550200ec
:1043680000000000d4058300e00f5200090032006d
:10437800940283009e027800848f520004003a0061
:10438800f85902000000000000000000010037009a
:10439800340607000080fa00000006000c00fa004e
:1043a80040079800510798000002eb00040f7800be
:1043b800ce010700b4058300140798004e02900050
:1043c800940278005e02900004824200240798005c
:1043d8004e029000940278001e029000848f5200d2
:1043e8000c0036004e029000940278002e029000d5
:1043f800848f520012003600ae0290001e02900018
:10440800848f52000e00360014002000040f78003c
:104418000b0037004e029000940278002e029000a4
:10442800848f520004003e00ae0290001e029000ed
:10443800848f52000200360014002000040f780018
:104448004e029000ae029000050a78001e02780025
:10445800e00f520007003200940283000482e80053
:104468000400780072580200000000002e0090003e
:10447800ec040700a3010700000278003407980045
:104488003e029000e00f520003003a00f859020083
:1044980000000000000000000080fa000000060094
:1044a8000600fa00200798000002eb00040f7800cd
:1044b8002e029000e00f52000f0032008b0107001f
:1044c800b50583002e02900004824200140798006c
:1044d800940283000482e800040078007258020005
:1044e800000000001e009000ce04070085010700b0
:1044f80000027800040f78001e027800e00f5200d6
:1045080003003a00f8590200000000000000000013
:104518000080fa00000006000600fa002007980054
:10452800ce550200000000002e029000e00f52005d
:1045380002003a0094028300010037002e02900026
:10454800040f78001e027800b40a9000150798003e
:10455800e2550200000000001e02900004007800ee
:104568000080fa00000006000c00fa0040079800de
:10457800510798000002eb00040f78005e029000db
:10458800e30f520002003600340020005407980060
:10459800ce550200000000004e029000e00f5200cd
:1045a80002003a0094028300010037004e02900096
:1045b800140798001e029000c41290002507980066
:1045c800ae0290005e029000848f520053003200c9
:1045d800de0290002e029000848f52000c003600fc
:1045e800940283009e029000848f52000e003200d5
:1045f80094028300b40a90005e029000848f5200f7
:1046080009003e0014002000040f7800060037005f
:10461800940283009e029000848f520002003a00a8
:1046280014002000040f78001e029000b40a9000c5
:10463800350798001e029000c41290001e029000d8
:10464800340a9000848f520003003a001e02900042
:10465800de029000350a98001e029000de029000eb
:10466800451298001e02900064029000e00f52006c
:10467800040035005e029000e40212001e02900061
:10468800650298001e029000d40290003e0290003d
:10469800ea23b9004405260004024300848f52002f
:1046a80018003a001e0290000482e8000400780016
:1046b80072580200000000001e029000b40a900028
:1046c800c4058300848f5200030036001e02900048
:1046d800340a9000c4058b001e0290008482e80012
:1046e8001e029000340a9000ea23b900440526000f
:1046f800040243008500780004007800d2570200c5
:10470800000000001e027800e10f520003003a008a
:10471800f85902000000000000000000e255020005
:10472800000000000080fa00000006000400fa0003
:1047380010079800ce550200000000001e029000ed
:10474800e00f520002003a00940283000100370093
:104758001e029000040f78001e82e8000400780012
:1047680072580200000000001e027800240a90001f
:10477800e00f5200050032009e0278006c82420071
:104788000400780072580200000000001e82e80051
:1047980084007800a00a2600d2570200000000001a
:1047a800e255020000000000940283009e02780097
:1047b800848f520010003a00d4058300e00f5200a5
:1047c80004003200f8590200000000000000000058
:1047d8000d00370055058300a4058300848f52001f
:1047e80003003a000002eb0094028b000600370039
:1047f8000f02070004003700d4058300e00f5200c1
:1048080001003200170507000080fa0000000600ca
:104818000600fa00200798000002eb00040f780059
:104828002e029000140798001e029000d4029000f7
:10483800a40a2600848f52000b003a001e02900042
:10484800a40a900044092600848f52000600320012
:104858001e029000240a9000e00f520002003a0065
:1048680014002000040f78001e027800040078006d
:104878000080fa00000006000400fa001007980003
:104888001e029000040f78001e027800e00f52000c
:104898002c003200940283009e027800848f52001c
:1048a80028003200ce550200000000001e007800eb
:1048b800d7ff070000027800e10f52001f003a00fe
:1048c8001e82e80004007800725802000000000010
:1048d8001e027800b40a9000c4058300848f520039
:1048e800030036001e027800340a9000c4058b00cd
:1048f8009e82e8001e027800340a9000ea23b9007c
:10490800440526000402430085007800040078006e
:10491800d2570200000000001e027800b40a90007e
:1049280094028300340a9000848f520003003900f7
:10493800f85902000000000000000000e2550200e3
:10494800000000000080fa00000006000800fa00dd
:10495800300798000002eb00040f78003e02900038
:10496800140798000002eb00240798001e0090002e
:10497800a7ff070000027800e10f52002a003a0062
:1049880024068300e00f520021003a001e02900026
:10499800b40a900094028300340a9000848f520075
:1049a8000200390014002000040f78001e02900055
:1049b8000482e80004007800725802000000000039
:1049c8001e029000b40a9000c4058300848f520030
:1049d800030036001e029000340a9000c4058b00c4
:1049e8001e0290008482e8001e029000340a9000a3
:1049f800ea23b90044052600040243008500780034
:104a080004007800d25702000000000006003700ba
:104a18001e0290006c0242008400780040092600c3
:104a2800d2570200000000001e027800040078003f
:104a38000080fa00000006000200fa008003eb0084
:104a48000003eb008002eb000002eb008001eb00aa
:104a580042062000e1022a0080ae2200a0fd0700e5
:104a680000027800040f78001e027800e10f52005f
:104a780004003a00103e0200000000000002780026
:104a8800040f78001e027800e10f52000a003a0075
:104a9800150280000402200005027200140288003a
:104aa80014002000d4058b000002eb00b4058b0035
:104ab80068550200000000000080fa0000000600af
:104ac8000000fa00150280000402200005027200ae
:104ad800140288000002eb00d4058b009c550200ec
:104ae800000000000080fa00000006000000fa0044
:104af800240683000402e80024068b000080fa00e4
:104b0800000006000400fa000002eb00040f780021
:104b1800ce55020000000000240683000402e900cc
:104b280024068b0024068300e00f520047003a0059
:104b3800a4058300e00f520044003200280037002b
:104b4800d404830034029000140798001e029000d9
:104b58006c02420004007800725802000000000055
:104b68001e0290000482e8000400780072580200d7
:104b7800000000001e029000b40a9000c4058300e3
:104b8800848f5200030036001e029000340a900001
:104b9800c4058b001e0290008482e8001e0290006b
:104ba800340a9000ea23b9004405260004024300b1
:104bb8008500780004007800d25702000000000049
:104bc8001e029000b40a900094028300340a9000f8
:104bd800848f52000200390014002000f4058b0075
:104be800a4048300e00f5200d5ff3a00e4058300d7
:104bf800e00f52000d00320009003700970007004f
:104c080000027800e00f5200020032001400200079
:104c1800f4058b00e40583000402e900e4058b0039
:104c2800e4058300e00f5200f4ff3a00f405830026
:104c3800e10f520005003a0014002000040f78002c
:104c4800f85902000000000000000000e2550200d0
:104c5800000000001e027800040078000080fa00be
:104c6800000006000200fa00ce5502000000000015
:104c7800b4058300040f7800e2550200000000002c
:104c88001e027800040078000080fa000000060088
:104c98000400fa000002eb00040f7800b40583005a
:104ca800140798001e029000040078000080fa00a3
:104cb800000006000000fa00a40583000400780044
:104cc8000080fa00000006000400fa0010079800af
:104cd8001e029000e00f520002003a009402830086
:104ce800010037001e029000040f78009e02780031
:104cf8007a824200040078000080fa000000060072
:104d08000a00fa0020079800310798004207980027
:104d18000002eb00040f78004400200014079800fc
:104d280072ff0700a4058300be029000848f520022
:104d3800450039001e0290000402e900140798009b
:104d48001e029000ea22b900840278004405260079
:104d5800848242001e027800f222b9002e039000dd
:104d68000402430012002000850078000400780047
:104d7800fc020700000278001e0f42001e0290008d
:104d8800e00f5200ebff3a00850483001e02780012
:104d9800f222b9002e0390000402430022002000f2
:104da8008500780004007800ee0207000002780011
:104db8001e0f4200950483001e027800f222b900fb
:104dc8002e03900004024300220020008500780092
:104dd80004007800e3020700000278001e0f42007a
:104de8001e027800f222b900ae029000048242004e
:104df80042002000e109260004007800d9020700db
:104e0800000278001e0f42001e027800f222b9004c
:104e1800ae0290000482420032002000a10a26005f
:104e280004007800cf020700000278001e0f42003d
:104e38004e029000e00f5200030032004e03900033
:104e48006022b800048bbe002eff07001e02780007
:104e5800040078000080fa00000006000a00fa004a
:104e68000002eb00040f780024068300e00f5200d4
:104e780063003a00b40583000402e800b4058b001f
:104e8800b4058300140798001e029000e00f52003a
:104e98000a003a00850483002507980094048300db
:104ea80084048b002e02900094048b000406830077
:104eb8000402e80004068b006a030700240b830041
:104ec8009e029000848f5200410039000100370093
:104ed800000000008404830014027800e00f5200f0
:104ee80003003a000082eb00240b8b0038003700e7
:104ef8008404830034029000340290003407980040
:104f08003e02900094029000450798009e0290008f
:104f18004e029000848f5200030031004e02900030
:104f2800240b8b002a0037003e0290000482e80020
:104f38000400780072580200000000003e02900051
:104f4800240a9000e00f5200050032003e02900053
:104f58006c02420004007800725802000000000051
:104f68003e029000b40a9000c4058300848f52006a
:104f7800030036003e029000340a9000c4058b00fe
:104f88003e0290008482e8003e029000340a9000bd
:104f9800ea23b9004405260004024300850078008e
:104fa80004007800d2570200000000003e02900082
:104fb800b40a900094028300340a9000848f52004f
:104fc800c3ff390014002000040f7800c1ff370028
:104fd80094028300340a9000ea22b900840278001f
:104fe800440526000482420014027800e10f5200b2
:104ff8000600360014002000040f78000300370074
:10500800e40583000402e800e4058b00f40583004e
:10501800e00f52000200320014002000040f780054
:105028001e027800040078000080fa0000000600e4
:105038000200fa0024068300e00f52000300320049
:1050480014002000f4058b00270037000002eb0055
:10505800f4058b0003003700c40583000402e9004f
:10506800c4058b00c4058300ea22b90084027800d5
:10507800440526000482420014027800e00f520022
:10508800f5ff3200c4058300ea22b90084027800e3
:1050980044052600048f42001e0278001402900086
:1050a800940290001e027800150298001e027800f3
:1050b800940290001e03780064024300848f52001b
:1050c80005003a001e027800140290009402900035
:1050d8001e027800150298001e0278001402900043
:1050e8003402900094028b000080fa000000060051
:1050f8000600fa0010079800210798009402830020
:105108006c024200840078001e0090000e580200d5
:1051180000000000940283000482e8000400780084
:1051280072580200000000002e029000e10f4200b9
:1051380007003a00940283000482e80084007800a3
:10514800a00a2600d2570200000000000500370020
:10515800b50583002e029000048f42001e007800df
:10516800b00107000080fa00000006000800fa00fd
:1051780010079800210798003207980094028300ce
:105188002e039000050028008682720065029800b0
:10519800940283006c024200840078001e00900094
:1051a800d257020000000000940283000482e80045
:1051b8000400780072580200000000003e029000cf
:1051c800e10f420007003a00940283000482e800dd
:1051d80084007800a00a2600d257020000000000d0
:1051e80005003700b50583003e029000048f420099
:1051f8001e0078008b0107000080fa0000000600fe
:105208000600fa001007980021079800940283000e
:105218006c024200840078001e009000d257020001
:1052280000000000940283000482e8000400780073
:105238007258020000000000b50583002e0290009d
:10524800048f42001e007800760107000080fa00f3
:10525800000006000600fa00200798002e029000c1
:105268003402900034029000140798001e02900047
:105278006c0242000400780072580200000000002e
:1052880024068300e00f520019003a001e02900025
:105298000482e80004007800725802000000000050
:1052a8001e029000b40a9000c4058300848f520047
:1052b800030036001e029000340a9000c4058b00db
:1052c8001e0290008482e8001e029000340a9000ba
:1052d800ea23b9004405260004024300850078004b
:1052e80004007800d25702000000000006003700d2
:1052f8001e0290006c0242008400780040092600db
:10530800d2570200000000001e029000b40a90006c
:1053180094028300340a9000848f520005003600fe
:1053280014002000040f780014002000f4058b00fe
:10533800020037000002eb00040f78001e0278001c
:10534800040078000080fa00000006000800fa0057
:105358002007980031079800be029000040028003a
:105368000403780005037300860278002e0290007b
:10537800050a78002e029000340290001407980065
:105388002e00900072580200000000001e029000db
:105398000482e8000400780072580200000000004f
:1053a8001e029000b40a9000c4058300848f520046
:1053b800030036001e029000340a9000c4058b00da
:1053c8001e0290008482e8001e029000340a9000b9
:1053d800ea23b9004405260004024300850078004a
:1053e80004007800d2570200000000001e0290005e
:1053f800b40a900094028300340a9000848f52000b
:105408000500360014002000040f78001400200066
:10541800f4058b00020037000002eb00040f78004f
:105428001e027800040078000080fa0000000600e0
:105438000200fa00000f7800050683001e027800bb
:10544800050a7800b50583001e0278001502980049
:105458000080fa00000006000800fa002007980003
:1054680031079800ce55020000000000b405830003
:10547800140798003e02900014027800e10f4200e1
:1054880003003a000002eb00040f78002500370003
:105498002e0290009402780004068300848f520044
:1054a800080032002e029000940290001e02900024
:1054b800848f520003003e0014002000040f78007f
:1054c800180037002e029000140290009e029000ef
:1054d800848252003e02900014027800848f5200a9
:1054e8000e0031003e029000940278002e029000d7
:1054f800140390001e0290000402530084824200ac
:105508003e029000050a78002e009000c8ff0700b0
:105518000002eb00040f780002003700140020009e
:10552800040f7800e2550200000000001e02780017
:10553800040078000080fa00000006000000fa006d
:1055480014002000f4058b000080fa00000006001b
:105558000600fa00200798002e029000e00f520083
:10556800060032002e029000140798001e029000d8
:10557800b4129000050f7800020037000002eb001b
:10558800040f78001e027800040078000080fa00fa
:10559800000006000600fa0010079800210798008e
:1055a8001e029000e00f5200050032001e0290001b
:1055b800040f78001e027800ae02900035129800a1
:1055c8000080fa00000006000200fa00000f7800d0
:1055d80001003700000000006b000700a4028300f0
:1055e800e10f5200fbff3600f859020000000000ee
:1055f80000000000f8ff37000c00fa0010079800c0
:10560800210798003207980043079800540798002c
:105618000002eb00040f78000d0037002e02900006
:105628001e024200144278009e0290009e824200b0
:10563800fa824200844a78002e0290001e0242003c
:1056480014427800e04f5200050032001e0fe800b7
:105658001e027800e70f5200f0ff36000100370005
:10566800000000009e0290000042eb009462980047
:105678003e029000e30f5200020036003400200082
:10568800340798001e029000be029000350a980068
:105698001e029000be029000451298001e02900063
:1056a8000482e80004007800c457020000000000eb
:1056b8001e0290006c02420004007800c4570200e9
:1056c800000000001e0290009e0290004502980013
:1056d8003e029000e40212001e029000650298004b
:1056e8001e0290009e029000150a98000080fa00a1
:1056f800000006000200fa000002eb00040f780028
:10570800090037001e027800ea22b90084027800f6
:1057180044052600048242000400780092570200e3
:10572800000000001e0fe8001e027800e30f520080
:10573800f4ff3600c0072600925702000000000060
:105748006008260092570200000000004009260069
:105758009257020000000000e0092600925702005c
:1057680000000000a00a2600925702000000000076
:10577800c407260084048b006408260094048b0068
:105788000080fa00000006000400fa00200037003c
:10579800d6fc0700f404830004f0a7000402ea0022
:1057a800040fe9001e0278004f22de00040f780083
:1057b800d4fc07001e027800e00f520014003a00e3
:1057c800ce5502000000000024058300340290003a
:1057d800140798001e0290000482e8000400780074
:1057e8007258020000000000a40583000402e900ca
:1057f800a4058b00440583000402e90044058b00de
:10580800e2550200000000001e0090000901070098
:1058180044058300e00f5200ddff3a000080fa00e3
:10582800000006000200fa00000f780094028300ce
:105838009e02780015029800b40583009e02780045
:10584800848f520008003100940283008482e800ab
:105858009404830085007800040078000e58020044
:10586800000000000d003700940283008482e800e5
:105878008404830085007800040078000e58020034
:1058880000000000240b83009e027800848f5200e1
:10589800020031001e027800240b8b000080fa0001
:1058a800000006000600fa0010079800210798007b
:1058b800a00220007a4c02000000000000027800dc
:1058c800040f78001e027800e00f52002100320019
:1058d8002e029000e00f520007003a001e029000ce
:1058e80004024200040078007a4c02000000000024
:1058f80000027800010037002e0290009e02780016
:10590800c40a98001e027800440a9000e00f520072
:1059180006003a001e0078006a4d020000000000f0
:105928000002eb00040f78000a0037001e02900006
:1059380004024200840278001e027800440a9000a3
:1059480005017800510a2000040078003a08020096
:10595800000000001e027800040078000080fa00b1
:10596800000006001000fa00881f78005007980011
:1059780061079800720798000002eb00040f780096
:105988006e02900014027800e00f52007700320097
:105998006e029000140798001e02900014029000f6
:1059a800940290001e029000150298001e029000ba
:1059b800940290001e02900064024200848f5200fc
:1059c80005003a001e029000140290009402900014
:1059d8001e029000150298001e029000140290000a
:1059e8003402900024079800ee02900035079800d2
:1059f8003e02900014029000940290003e02900033
:105a0800150298003e029000940290003e02900019
:105a180064024200848f520005003a003e02900062
:105a280014029000940290003e0290001502980023
:105a38003e0290001402900034029000440798003f
:105a48001e027800f222b900de02900004824200b1
:105a5800ce029000050a78001e027800f222b900f2
:105a6800de02900004824200ce029000fa824200d8
:105a7800150298001e027800f222b900de0290009a
:105a880004824200ce029000a512900025029800e0
:105a98001e027800f222b900de0290000482420061
:105aa800fe029000350298001e027800f222b9002a
:105ab800de02900004824200ce029000b50a9000f7
:105ac800450298007e029000e30f52000a003a0057
:105ad8004e029000240a9000e00f520006003200a7
:105ae8001e027800f222b900de0290000482420011
:105af80025002000350298001e027800f222b90025
:105b0800de02900004824200ce029000c51290008e
:105b1800550298001e027800f222b900de029000b9
:105b2800048342006022b80064039800750398005b
:105b38001e027800f222b900de02900004844200be
:105b48004e02900014129000040078000c00070028
:105b580000027800040c98001e0fe800ce029000a6
:105b68002e029000848f52009fff3a001e02780098
:105b7800040078004f0478000080fa000000060056
:105b88000600fa00200798006022b800048fbe00c3
:105b9800070037002e0290000402e900240798004d
:105ba80014002000050020001e0f42005e974a00e6
:105bb8002e0290009442780054cab30084cf520059
:105bc800f4ff32001e02be008502d1000482d30019
:105bd800048fbe001e027800040078000080fa00de
:105be800000006000800fa00300798003e02900006
:105bf800e00f520002003a009402830001003700cf
:105c08003e029000040f78001e02780014129000e3
:105c1800140798001e009000d9ff070000027800c2
:105c2800240798002e029000040078000080fa00f3
:105c3800000006000200fa00000f78001e0278003b
:105c4800440a9000040078006a4d02000000000039
:105c58001e0078006a4d0200000000000080fa0073
:105c6800000006000200fa00840483001402780091
:105c7800e00f520003003a000082eb00240b8b0077
:105c88000700370084048300340290003402900037
:105c9800040f78001e02780014029000240b8b0079
:105ca8000080fa00000006000200fa009402830057
:105cb800040f78001e027800040078000080fa00c3
:105cc800000006000200fa00d4058300e00f52002d
:105cd80003003a0014002000040f78000800370081
:105ce80024068300e00f520003003a00240020003d
:105cf800040f7800020037000002eb00040f780060
:105d08001e027800040078000080fa0000000600f7
:105d18000400fa00100798001e029000040f780093
:105d28001e029000e00f5200370032001e02780079
:105d3800b40a900094028300340a9000848f5200c1
:105d4800310031001e02780064029000e00f52001a
:105d58000500350094028300340a9000e402120022
:105d68001e027800650298001e027800d402900096
:105d78001e027800340a9000ea23b9004405260080
:105d880004024300848f52001b003a001e82e80080
:105d9800040078007258020000000000940283009a
:105da800b40a90001e027800350a98001e02780096
:105db800b40a9000c4058300848f520003003600a3
:105dc8001e027800340a9000c4058b009e82e80009
:105dd8001e027800340a9000ea23b9004405260020
:105de800040243008500780004007800d2570200be
:105df800000000000400370094028300b40a9000f9
:105e08001e027800350a98000080fa00000006009b
:105e18000400fa00100798001e029000040f780092
:105e28001e029000e00f5200290032001e02780086
:105e3800b40a90001e02780044129000848f520029
